{
  "abi": [
    {
      "anonymous": false,
      "inputs": [
        {
          "indexed": false,
          "internalType": "string",
          "name": "description",
          "type": "string"
        },
        {
          "indexed": false,
          "internalType": "address",
          "name": "manager",
          "type": "address"
        }
      ],
      "name": "DATA",
      "type": "event"
    },
    {
      "inputs": [
        {
          "internalType": "string",
          "name": "description",
          "type": "string"
        }
      ],
      "name": "createData",
      "outputs": [],
      "stateMutability": "nonpayable",
      "type": "function"
    },
    {
      "inputs": [
        {
          "internalType": "uint256",
          "name": "",
          "type": "uint256"
        }
      ],
      "name": "data",
      "outputs": [
        {
          "internalType": "string",
          "name": "description",
          "type": "string"
        },
        {
          "internalType": "uint256",
          "name": "requestsMadeCount",
          "type": "uint256"
        },
        {
          "internalType": "address",
          "name": "manager",
          "type": "address"
        }
      ],
      "stateMutability": "view",
      "type": "function"
    },
    {
      "inputs": [
        {
          "internalType": "uint256",
          "name": "index",
          "type": "uint256"
        }
      ],
      "name": "dispayData",
      "outputs": [],
      "stateMutability": "view",
      "type": "function"
    },
    {
      "inputs": [
        {
          "internalType": "uint256",
          "name": "index",
          "type": "uint256"
        },
        {
          "internalType": "address",
          "name": "req",
          "type": "address"
        }
      ],
      "name": "finalizeRequest",
      "outputs": [],
      "stateMutability": "nonpayable",
      "type": "function"
    },
    {
      "inputs": [
        {
          "internalType": "uint256",
          "name": "index",
          "type": "uint256"
        }
      ],
      "name": "makeRequest",
      "outputs": [],
      "stateMutability": "nonpayable",
      "type": "function"
    },
    {
      "inputs": [
        {
          "internalType": "address",
          "name": "",
          "type": "address"
        }
      ],
      "name": "requesters",
      "outputs": [
        {
          "internalType": "bool",
          "name": "",
          "type": "bool"
        }
      ],
      "stateMutability": "view",
      "type": "function"
    },
    {
      "inputs": [],
      "name": "requestersCount",
      "outputs": [
        {
          "internalType": "uint256",
          "name": "",
          "type": "uint256"
        }
      ],
      "stateMutability": "view",
      "type": "function"
    }
  ],
  "devdoc": {
    "kind": "dev",
    "methods": {},
    "version": 1
  },
  "evm": {
    "assembly": "    /* \"HealthHub.sol\":402:2091  contract HealthHub {\r... */\n  mstore(0x40, 0x80)\n  callvalue\n  dup1\n  iszero\n  tag_1\n  jumpi\n  0x00\n  dup1\n  revert\ntag_1:\n  pop\n  dataSize(sub_0)\n  dup1\n  dataOffset(sub_0)\n  0x00\n  codecopy\n  0x00\n  return\nstop\n\nsub_0: assembly {\n        /* \"HealthHub.sol\":402:2091  contract HealthHub {\r... */\n      mstore(0x40, 0x80)\n      callvalue\n      dup1\n      iszero\n      tag_1\n      jumpi\n      0x00\n      dup1\n      revert\n    tag_1:\n      pop\n      jumpi(tag_2, lt(calldatasize, 0x04))\n      shr(0xe0, calldataload(0x00))\n      dup1\n      0xd6f8307f\n      gt\n      tag_10\n      jumpi\n      dup1\n      0xd6f8307f\n      eq\n      tag_6\n      jumpi\n      dup1\n      0xde58f1b6\n      eq\n      tag_7\n      jumpi\n      dup1\n      0xeecd6bc2\n      eq\n      tag_8\n      jumpi\n      dup1\n      0xf0ba8440\n      eq\n      tag_9\n      jumpi\n      jump(tag_2)\n    tag_10:\n      dup1\n      0x19a32989\n      eq\n      tag_3\n      jumpi\n      dup1\n      0x1da000ec\n      eq\n      tag_4\n      jumpi\n      dup1\n      0x3b40075d\n      eq\n      tag_5\n      jumpi\n    tag_2:\n      0x00\n      dup1\n      revert\n        /* \"HealthHub.sol\":1857:2086  function dispayData(uint index) view public {\r... */\n    tag_3:\n      tag_11\n      0x04\n      dup1\n      calldatasize\n      sub\n      dup2\n      add\n      swap1\n      tag_12\n      swap2\n      swap1\n      tag_13\n      jump\t// in\n    tag_12:\n      tag_14\n      jump\t// in\n    tag_11:\n      stop\n        /* \"HealthHub.sol\":1677:1845  function finalizeRequest(uint index, address req) public {\r... */\n    tag_4:\n      tag_15\n      0x04\n      dup1\n      calldatasize\n      sub\n      dup2\n      add\n      swap1\n      tag_16\n      swap2\n      swap1\n      tag_17\n      jump\t// in\n    tag_16:\n      tag_18\n      jump\t// in\n    tag_15:\n      stop\n        /* \"HealthHub.sol\":1208:1665  function makeRequest(uint index) public {\r... */\n    tag_5:\n      tag_19\n      0x04\n      dup1\n      calldatasize\n      sub\n      dup2\n      add\n      swap1\n      tag_20\n      swap2\n      swap1\n      tag_13\n      jump\t// in\n    tag_20:\n      tag_21\n      jump\t// in\n    tag_19:\n      stop\n        /* \"HealthHub.sol\":428:470  mapping(address => bool) public requesters */\n    tag_6:\n      tag_22\n      0x04\n      dup1\n      calldatasize\n      sub\n      dup2\n      add\n      swap1\n      tag_23\n      swap2\n      swap1\n      tag_24\n      jump\t// in\n    tag_23:\n      tag_25\n      jump\t// in\n    tag_22:\n      mload(0x40)\n      tag_26\n      swap2\n      swap1\n      tag_27\n      jump\t// in\n    tag_26:\n      mload(0x40)\n      dup1\n      swap2\n      sub\n      swap1\n      return\n        /* \"HealthHub.sol\":477:504  uint public requestersCount */\n    tag_7:\n      tag_28\n      tag_29\n      jump\t// in\n    tag_28:\n      mload(0x40)\n      tag_30\n      swap2\n      swap1\n      tag_31\n      jump\t// in\n    tag_30:\n      mload(0x40)\n      dup1\n      swap2\n      sub\n      swap1\n      return\n        /* \"HealthHub.sol\":903:1196  function createData (string memory description) public {\r... */\n    tag_8:\n      tag_32\n      0x04\n      dup1\n      calldatasize\n      sub\n      dup2\n      add\n      swap1\n      tag_33\n      swap2\n      swap1\n      tag_34\n      jump\t// in\n    tag_33:\n      tag_35\n      jump\t// in\n    tag_32:\n      stop\n        /* \"HealthHub.sol\":856:890  mapping (uint => Data) public data */\n    tag_9:\n      tag_36\n      0x04\n      dup1\n      calldatasize\n      sub\n      dup2\n      add\n      swap1\n      tag_37\n      swap2\n      swap1\n      tag_13\n      jump\t// in\n    tag_37:\n      tag_38\n      jump\t// in\n    tag_36:\n      mload(0x40)\n      tag_39\n      swap4\n      swap3\n      swap2\n      swap1\n      tag_40\n      jump\t// in\n    tag_39:\n      mload(0x40)\n      dup1\n      swap2\n      sub\n      swap1\n      return\n        /* \"HealthHub.sol\":1857:2086  function dispayData(uint index) view public {\r... */\n    tag_14:\n        /* \"HealthHub.sol\":1944:1954  msg.sender */\n      caller\n        /* \"HealthHub.sol\":1921:1954  data[index].manager == msg.sender */\n      0xffffffffffffffffffffffffffffffffffffffff\n      and\n        /* \"HealthHub.sol\":1921:1925  data */\n      0x03\n        /* \"HealthHub.sol\":1921:1932  data[index] */\n      0x00\n        /* \"HealthHub.sol\":1926:1931  index */\n      dup4\n        /* \"HealthHub.sol\":1921:1932  data[index] */\n      dup2\n      mstore\n      0x20\n      add\n      swap1\n      dup2\n      mstore\n      0x20\n      add\n      0x00\n      keccak256\n        /* \"HealthHub.sol\":1921:1940  data[index].manager */\n      0x04\n      add\n      0x00\n      swap1\n      sload\n      swap1\n      0x0100\n      exp\n      swap1\n      div\n      0xffffffffffffffffffffffffffffffffffffffff\n      and\n        /* \"HealthHub.sol\":1921:1954  data[index].manager == msg.sender */\n      0xffffffffffffffffffffffffffffffffffffffff\n      and\n      eq\n        /* \"HealthHub.sol\":1920:1998  (data[index].manager == msg.sender) || (data[index].finalApproved[msg.sender]) */\n      dup1\n      tag_42\n      jumpi\n      pop\n        /* \"HealthHub.sol\":1960:1964  data */\n      0x03\n        /* \"HealthHub.sol\":1960:1971  data[index] */\n      0x00\n        /* \"HealthHub.sol\":1965:1970  index */\n      dup3\n        /* \"HealthHub.sol\":1960:1971  data[index] */\n      dup2\n      mstore\n      0x20\n      add\n      swap1\n      dup2\n      mstore\n      0x20\n      add\n      0x00\n      keccak256\n        /* \"HealthHub.sol\":1960:1985  data[index].finalApproved */\n      0x02\n      add\n        /* \"HealthHub.sol\":1960:1997  data[index].finalApproved[msg.sender] */\n      0x00\n        /* \"HealthHub.sol\":1986:1996  msg.sender */\n      caller\n        /* \"HealthHub.sol\":1960:1997  data[index].finalApproved[msg.sender] */\n      0xffffffffffffffffffffffffffffffffffffffff\n      and\n      0xffffffffffffffffffffffffffffffffffffffff\n      and\n      dup2\n      mstore\n      0x20\n      add\n      swap1\n      dup2\n      mstore\n      0x20\n      add\n      0x00\n      keccak256\n      0x00\n      swap1\n      sload\n      swap1\n      0x0100\n      exp\n      swap1\n      div\n      0xff\n      and\n        /* \"HealthHub.sol\":1920:1998  (data[index].manager == msg.sender) || (data[index].finalApproved[msg.sender]) */\n    tag_42:\n        /* \"HealthHub.sol\":1912:1999  require((data[index].manager == msg.sender) || (data[index].finalApproved[msg.sender])) */\n      tag_43\n      jumpi\n      0x00\n      dup1\n      revert\n    tag_43:\n        /* \"HealthHub.sol\":1857:2086  function dispayData(uint index) view public {\r... */\n      pop\n      jump\t// out\n        /* \"HealthHub.sol\":1677:1845  function finalizeRequest(uint index, address req) public {\r... */\n    tag_18:\n        /* \"HealthHub.sol\":1776:1786  msg.sender */\n      caller\n        /* \"HealthHub.sol\":1753:1786  data[index].manager == msg.sender */\n      0xffffffffffffffffffffffffffffffffffffffff\n      and\n        /* \"HealthHub.sol\":1753:1757  data */\n      0x03\n        /* \"HealthHub.sol\":1753:1764  data[index] */\n      0x00\n        /* \"HealthHub.sol\":1758:1763  index */\n      dup5\n        /* \"HealthHub.sol\":1753:1764  data[index] */\n      dup2\n      mstore\n      0x20\n      add\n      swap1\n      dup2\n      mstore\n      0x20\n      add\n      0x00\n      keccak256\n        /* \"HealthHub.sol\":1753:1772  data[index].manager */\n      0x04\n      add\n      0x00\n      swap1\n      sload\n      swap1\n      0x0100\n      exp\n      swap1\n      div\n      0xffffffffffffffffffffffffffffffffffffffff\n      and\n        /* \"HealthHub.sol\":1753:1786  data[index].manager == msg.sender */\n      0xffffffffffffffffffffffffffffffffffffffff\n      and\n      eq\n        /* \"HealthHub.sol\":1745:1787  require(data[index].manager == msg.sender) */\n      tag_45\n      jumpi\n      0x00\n      dup1\n      revert\n    tag_45:\n        /* \"HealthHub.sol\":1833:1837  true */\n      0x01\n        /* \"HealthHub.sol\":1800:1804  data */\n      0x03\n        /* \"HealthHub.sol\":1800:1811  data[index] */\n      0x00\n        /* \"HealthHub.sol\":1805:1810  index */\n      dup5\n        /* \"HealthHub.sol\":1800:1811  data[index] */\n      dup2\n      mstore\n      0x20\n      add\n      swap1\n      dup2\n      mstore\n      0x20\n      add\n      0x00\n      keccak256\n        /* \"HealthHub.sol\":1800:1825  data[index].finalApproved */\n      0x02\n      add\n        /* \"HealthHub.sol\":1800:1830  data[index].finalApproved[req] */\n      0x00\n        /* \"HealthHub.sol\":1826:1829  req */\n      dup4\n        /* \"HealthHub.sol\":1800:1830  data[index].finalApproved[req] */\n      0xffffffffffffffffffffffffffffffffffffffff\n      and\n      0xffffffffffffffffffffffffffffffffffffffff\n      and\n      dup2\n      mstore\n      0x20\n      add\n      swap1\n      dup2\n      mstore\n      0x20\n      add\n      0x00\n      keccak256\n      0x00\n        /* \"HealthHub.sol\":1800:1837  data[index].finalApproved[req] = true */\n      0x0100\n      exp\n      dup2\n      sload\n      dup2\n      0xff\n      mul\n      not\n      and\n      swap1\n      dup4\n      iszero\n      iszero\n      mul\n      or\n      swap1\n      sstore\n      pop\n        /* \"HealthHub.sol\":1677:1845  function finalizeRequest(uint index, address req) public {\r... */\n      pop\n      pop\n      jump\t// out\n        /* \"HealthHub.sol\":1208:1665  function makeRequest(uint index) public {\r... */\n    tag_21:\n        /* \"HealthHub.sol\":1349:1359  requesters */\n      0x00\n        /* \"HealthHub.sol\":1349:1371  requesters[msg.sender] */\n      dup1\n        /* \"HealthHub.sol\":1360:1370  msg.sender */\n      caller\n        /* \"HealthHub.sol\":1349:1371  requesters[msg.sender] */\n      0xffffffffffffffffffffffffffffffffffffffff\n      and\n      0xffffffffffffffffffffffffffffffffffffffff\n      and\n      dup2\n      mstore\n      0x20\n      add\n      swap1\n      dup2\n      mstore\n      0x20\n      add\n      0x00\n      keccak256\n      0x00\n      swap1\n      sload\n      swap1\n      0x0100\n      exp\n      swap1\n      div\n      0xff\n      and\n        /* \"HealthHub.sol\":1341:1372  require(requesters[msg.sender]) */\n      tag_47\n      jumpi\n      0x00\n      dup1\n      revert\n    tag_47:\n        /* \"HealthHub.sol\":1456:1460  data */\n      0x03\n        /* \"HealthHub.sol\":1456:1467  data[index] */\n      0x00\n        /* \"HealthHub.sol\":1461:1466  index */\n      dup3\n        /* \"HealthHub.sol\":1456:1467  data[index] */\n      dup2\n      mstore\n      0x20\n      add\n      swap1\n      dup2\n      mstore\n      0x20\n      add\n      0x00\n      keccak256\n        /* \"HealthHub.sol\":1456:1480  data[index].requestsMade */\n      0x01\n      add\n        /* \"HealthHub.sol\":1456:1492  data[index].requestsMade[msg.sender] */\n      0x00\n        /* \"HealthHub.sol\":1481:1491  msg.sender */\n      caller\n        /* \"HealthHub.sol\":1456:1492  data[index].requestsMade[msg.sender] */\n      0xffffffffffffffffffffffffffffffffffffffff\n      and\n      0xffffffffffffffffffffffffffffffffffffffff\n      and\n      dup2\n      mstore\n      0x20\n      add\n      swap1\n      dup2\n      mstore\n      0x20\n      add\n      0x00\n      keccak256\n      0x00\n      swap1\n      sload\n      swap1\n      0x0100\n      exp\n      swap1\n      div\n      0xff\n      and\n        /* \"HealthHub.sol\":1455:1492  !data[index].requestsMade[msg.sender] */\n      iszero\n        /* \"HealthHub.sol\":1447:1493  require(!data[index].requestsMade[msg.sender]) */\n      tag_48\n      jumpi\n      0x00\n      dup1\n      revert\n    tag_48:\n        /* \"HealthHub.sol\":1611:1615  true */\n      0x01\n        /* \"HealthHub.sol\":1572:1576  data */\n      0x03\n        /* \"HealthHub.sol\":1572:1583  data[index] */\n      0x00\n        /* \"HealthHub.sol\":1577:1582  index */\n      dup4\n        /* \"HealthHub.sol\":1572:1583  data[index] */\n      dup2\n      mstore\n      0x20\n      add\n      swap1\n      dup2\n      mstore\n      0x20\n      add\n      0x00\n      keccak256\n        /* \"HealthHub.sol\":1572:1596  data[index].requestsMade */\n      0x01\n      add\n        /* \"HealthHub.sol\":1572:1608  data[index].requestsMade[msg.sender] */\n      0x00\n        /* \"HealthHub.sol\":1597:1607  msg.sender */\n      caller\n        /* \"HealthHub.sol\":1572:1608  data[index].requestsMade[msg.sender] */\n      0xffffffffffffffffffffffffffffffffffffffff\n      and\n      0xffffffffffffffffffffffffffffffffffffffff\n      and\n      dup2\n      mstore\n      0x20\n      add\n      swap1\n      dup2\n      mstore\n      0x20\n      add\n      0x00\n      keccak256\n      0x00\n        /* \"HealthHub.sol\":1572:1615  data[index].requestsMade[msg.sender] = true */\n      0x0100\n      exp\n      dup2\n      sload\n      dup2\n      0xff\n      mul\n      not\n      and\n      swap1\n      dup4\n      iszero\n      iszero\n      mul\n      or\n      swap1\n      sstore\n      pop\n        /* \"HealthHub.sol\":1626:1630  data */\n      0x03\n        /* \"HealthHub.sol\":1626:1637  data[index] */\n      0x00\n        /* \"HealthHub.sol\":1631:1636  index */\n      dup3\n        /* \"HealthHub.sol\":1626:1637  data[index] */\n      dup2\n      mstore\n      0x20\n      add\n      swap1\n      dup2\n      mstore\n      0x20\n      add\n      0x00\n      keccak256\n        /* \"HealthHub.sol\":1626:1655  data[index].requestsMadeCount */\n      0x03\n      add\n      0x00\n        /* \"HealthHub.sol\":1626:1657  data[index].requestsMadeCount++ */\n      dup2\n      sload\n      dup1\n      swap3\n      swap2\n      swap1\n      tag_49\n      swap1\n      tag_50\n      jump\t// in\n    tag_49:\n      swap2\n      swap1\n      pop\n      sstore\n      pop\n        /* \"HealthHub.sol\":1208:1665  function makeRequest(uint index) public {\r... */\n      pop\n      jump\t// out\n        /* \"HealthHub.sol\":428:470  mapping(address => bool) public requesters */\n    tag_25:\n      mstore(0x20, 0x00)\n      dup1\n      0x00\n      mstore\n      keccak256(0x00, 0x40)\n      0x00\n      swap2\n      pop\n      sload\n      swap1\n      0x0100\n      exp\n      swap1\n      div\n      0xff\n      and\n      dup2\n      jump\t// out\n        /* \"HealthHub.sol\":477:504  uint public requestersCount */\n    tag_29:\n      sload(0x01)\n      dup2\n      jump\t// out\n        /* \"HealthHub.sol\":903:1196  function createData (string memory description) public {\r... */\n    tag_35:\n        /* \"HealthHub.sol\":994:998  true */\n      0x01\n        /* \"HealthHub.sol\":969:979  requesters */\n      0x00\n        /* \"HealthHub.sol\":969:991  requesters[msg.sender] */\n      dup1\n        /* \"HealthHub.sol\":980:990  msg.sender */\n      caller\n        /* \"HealthHub.sol\":969:991  requesters[msg.sender] */\n      0xffffffffffffffffffffffffffffffffffffffff\n      and\n      0xffffffffffffffffffffffffffffffffffffffff\n      and\n      dup2\n      mstore\n      0x20\n      add\n      swap1\n      dup2\n      mstore\n      0x20\n      add\n      0x00\n      keccak256\n      0x00\n        /* \"HealthHub.sol\":969:998  requesters[msg.sender] = true */\n      0x0100\n      exp\n      dup2\n      sload\n      dup2\n      0xff\n      mul\n      not\n      and\n      swap1\n      dup4\n      iszero\n      iszero\n      mul\n      or\n      swap1\n      sstore\n      pop\n        /* \"HealthHub.sol\":1009:1024  requestersCount */\n      0x01\n      0x00\n        /* \"HealthHub.sol\":1009:1026  requestersCount++ */\n      dup2\n      sload\n      dup1\n      swap3\n      swap2\n      swap1\n      tag_52\n      swap1\n      tag_50\n      jump\t// in\n    tag_52:\n      swap2\n      swap1\n      pop\n      sstore\n      pop\n        /* \"HealthHub.sol\":1037:1051  Data storage r */\n      0x00\n        /* \"HealthHub.sol\":1054:1058  data */\n      0x03\n        /* \"HealthHub.sol\":1054:1073  data[numRequests++] */\n      0x00\n        /* \"HealthHub.sol\":1059:1070  numRequests */\n      0x02\n      0x00\n        /* \"HealthHub.sol\":1059:1072  numRequests++ */\n      dup2\n      sload\n      dup1\n      swap3\n      swap2\n      swap1\n      tag_53\n      swap1\n      tag_50\n      jump\t// in\n    tag_53:\n      swap2\n      swap1\n      pop\n      sstore\n        /* \"HealthHub.sol\":1054:1073  data[numRequests++] */\n      dup2\n      mstore\n      0x20\n      add\n      swap1\n      dup2\n      mstore\n      0x20\n      add\n      0x00\n      keccak256\n        /* \"HealthHub.sol\":1037:1073  Data storage r = data[numRequests++] */\n      swap1\n      pop\n        /* \"HealthHub.sol\":1100:1111  description */\n      dup2\n        /* \"HealthHub.sol\":1084:1085  r */\n      dup2\n        /* \"HealthHub.sol\":1084:1097  r.description */\n      0x00\n      add\n        /* \"HealthHub.sol\":1084:1111  r.description = description */\n      swap1\n      dup1\n      mload\n      swap1\n      0x20\n      add\n      swap1\n      tag_54\n      swap3\n      swap2\n      swap1\n      tag_55\n      jump\t// in\n    tag_54:\n      pop\n        /* \"HealthHub.sol\":1144:1145  0 */\n      0x00\n        /* \"HealthHub.sol\":1122:1123  r */\n      dup2\n        /* \"HealthHub.sol\":1122:1141  r.requestsMadeCount */\n      0x03\n      add\n        /* \"HealthHub.sol\":1122:1145  r.requestsMadeCount = 0 */\n      dup2\n      swap1\n      sstore\n      pop\n        /* \"HealthHub.sol\":1168:1178  msg.sender */\n      caller\n        /* \"HealthHub.sol\":1156:1157  r */\n      dup2\n        /* \"HealthHub.sol\":1156:1165  r.manager */\n      0x04\n      add\n      0x00\n        /* \"HealthHub.sol\":1156:1178  r.manager = msg.sender */\n      0x0100\n      exp\n      dup2\n      sload\n      dup2\n      0xffffffffffffffffffffffffffffffffffffffff\n      mul\n      not\n      and\n      swap1\n      dup4\n      0xffffffffffffffffffffffffffffffffffffffff\n      and\n      mul\n      or\n      swap1\n      sstore\n      pop\n        /* \"HealthHub.sol\":903:1196  function createData (string memory description) public {\r... */\n      pop\n      pop\n      jump\t// out\n        /* \"HealthHub.sol\":856:890  mapping (uint => Data) public data */\n    tag_38:\n      mstore(0x20, 0x03)\n      dup1\n      0x00\n      mstore\n      keccak256(0x00, 0x40)\n      0x00\n      swap2\n      pop\n      swap1\n      pop\n      dup1\n      0x00\n      add\n      dup1\n      sload\n      tag_56\n      swap1\n      tag_57\n      jump\t// in\n    tag_56:\n      dup1\n      0x1f\n      add\n      0x20\n      dup1\n      swap2\n      div\n      mul\n      0x20\n      add\n      mload(0x40)\n      swap1\n      dup2\n      add\n      0x40\n      mstore\n      dup1\n      swap3\n      swap2\n      swap1\n      dup2\n      dup2\n      mstore\n      0x20\n      add\n      dup3\n      dup1\n      sload\n      tag_58\n      swap1\n      tag_57\n      jump\t// in\n    tag_58:\n      dup1\n      iszero\n      tag_59\n      jumpi\n      dup1\n      0x1f\n      lt\n      tag_60\n      jumpi\n      0x0100\n      dup1\n      dup4\n      sload\n      div\n      mul\n      dup4\n      mstore\n      swap2\n      0x20\n      add\n      swap2\n      jump(tag_59)\n    tag_60:\n      dup3\n      add\n      swap2\n      swap1\n      0x00\n      mstore\n      keccak256(0x00, 0x20)\n      swap1\n    tag_61:\n      dup2\n      sload\n      dup2\n      mstore\n      swap1\n      0x01\n      add\n      swap1\n      0x20\n      add\n      dup1\n      dup4\n      gt\n      tag_61\n      jumpi\n      dup3\n      swap1\n      sub\n      0x1f\n      and\n      dup3\n      add\n      swap2\n    tag_59:\n      pop\n      pop\n      pop\n      pop\n      pop\n      swap1\n      dup1\n      0x03\n      add\n      sload\n      swap1\n      dup1\n      0x04\n      add\n      0x00\n      swap1\n      sload\n      swap1\n      0x0100\n      exp\n      swap1\n      div\n      0xffffffffffffffffffffffffffffffffffffffff\n      and\n      swap1\n      pop\n      dup4\n      jump\t// out\n    tag_55:\n      dup3\n      dup1\n      sload\n      tag_62\n      swap1\n      tag_57\n      jump\t// in\n    tag_62:\n      swap1\n      0x00\n      mstore\n      keccak256(0x00, 0x20)\n      swap1\n      0x1f\n      add\n      0x20\n      swap1\n      div\n      dup2\n      add\n      swap3\n      dup3\n      tag_64\n      jumpi\n      0x00\n      dup6\n      sstore\n      jump(tag_63)\n    tag_64:\n      dup3\n      0x1f\n      lt\n      tag_65\n      jumpi\n      dup1\n      mload\n      not(0xff)\n      and\n      dup4\n      dup1\n      add\n      or\n      dup6\n      sstore\n      jump(tag_63)\n    tag_65:\n      dup3\n      dup1\n      add\n      0x01\n      add\n      dup6\n      sstore\n      dup3\n      iszero\n      tag_63\n      jumpi\n      swap2\n      dup3\n      add\n    tag_66:\n      dup3\n      dup2\n      gt\n      iszero\n      tag_67\n      jumpi\n      dup3\n      mload\n      dup3\n      sstore\n      swap2\n      0x20\n      add\n      swap2\n      swap1\n      0x01\n      add\n      swap1\n      jump(tag_66)\n    tag_67:\n    tag_63:\n      pop\n      swap1\n      pop\n      tag_68\n      swap2\n      swap1\n      tag_69\n      jump\t// in\n    tag_68:\n      pop\n      swap1\n      jump\t// out\n    tag_69:\n    tag_70:\n      dup1\n      dup3\n      gt\n      iszero\n      tag_71\n      jumpi\n      0x00\n      dup2\n      0x00\n      swap1\n      sstore\n      pop\n      0x01\n      add\n      jump(tag_70)\n    tag_71:\n      pop\n      swap1\n      jump\t// out\n        /* \"#utility.yul\":7:352   */\n    tag_73:\n        /* \"#utility.yul\":85:90   */\n      0x00\n        /* \"#utility.yul\":110:176   */\n      tag_75\n        /* \"#utility.yul\":126:175   */\n      tag_76\n        /* \"#utility.yul\":168:174   */\n      dup5\n        /* \"#utility.yul\":126:175   */\n      tag_77\n      jump\t// in\n    tag_76:\n        /* \"#utility.yul\":110:176   */\n      tag_78\n      jump\t// in\n    tag_75:\n        /* \"#utility.yul\":101:176   */\n      swap1\n      pop\n        /* \"#utility.yul\":199:205   */\n      dup3\n        /* \"#utility.yul\":192:197   */\n      dup2\n        /* \"#utility.yul\":185:206   */\n      mstore\n        /* \"#utility.yul\":237:241   */\n      0x20\n        /* \"#utility.yul\":230:235   */\n      dup2\n        /* \"#utility.yul\":226:242   */\n      add\n        /* \"#utility.yul\":275:278   */\n      dup5\n        /* \"#utility.yul\":266:272   */\n      dup5\n        /* \"#utility.yul\":261:264   */\n      dup5\n        /* \"#utility.yul\":257:273   */\n      add\n        /* \"#utility.yul\":254:279   */\n      gt\n        /* \"#utility.yul\":251:253   */\n      iszero\n      tag_79\n      jumpi\n        /* \"#utility.yul\":292:293   */\n      0x00\n        /* \"#utility.yul\":289:290   */\n      dup1\n        /* \"#utility.yul\":282:294   */\n      revert\n        /* \"#utility.yul\":251:253   */\n    tag_79:\n        /* \"#utility.yul\":305:346   */\n      tag_80\n        /* \"#utility.yul\":339:345   */\n      dup5\n        /* \"#utility.yul\":334:337   */\n      dup3\n        /* \"#utility.yul\":329:332   */\n      dup6\n        /* \"#utility.yul\":305:346   */\n      tag_81\n      jump\t// in\n    tag_80:\n        /* \"#utility.yul\":91:352   */\n      pop\n      swap4\n      swap3\n      pop\n      pop\n      pop\n      jump\t// out\n        /* \"#utility.yul\":358:497   */\n    tag_82:\n        /* \"#utility.yul\":404:409   */\n      0x00\n        /* \"#utility.yul\":442:448   */\n      dup2\n        /* \"#utility.yul\":429:449   */\n      calldataload\n        /* \"#utility.yul\":420:449   */\n      swap1\n      pop\n        /* \"#utility.yul\":458:491   */\n      tag_84\n        /* \"#utility.yul\":485:490   */\n      dup2\n        /* \"#utility.yul\":458:491   */\n      tag_85\n      jump\t// in\n    tag_84:\n        /* \"#utility.yul\":410:497   */\n      swap3\n      swap2\n      pop\n      pop\n      jump\t// out\n        /* \"#utility.yul\":517:790   */\n    tag_86:\n        /* \"#utility.yul\":573:578   */\n      0x00\n        /* \"#utility.yul\":622:625   */\n      dup3\n        /* \"#utility.yul\":615:619   */\n      0x1f\n        /* \"#utility.yul\":607:613   */\n      dup4\n        /* \"#utility.yul\":603:620   */\n      add\n        /* \"#utility.yul\":599:626   */\n      slt\n        /* \"#utility.yul\":589:591   */\n      tag_88\n      jumpi\n        /* \"#utility.yul\":640:641   */\n      0x00\n        /* \"#utility.yul\":637:638   */\n      dup1\n        /* \"#utility.yul\":630:642   */\n      revert\n        /* \"#utility.yul\":589:591   */\n    tag_88:\n        /* \"#utility.yul\":680:686   */\n      dup2\n        /* \"#utility.yul\":667:687   */\n      calldataload\n        /* \"#utility.yul\":705:784   */\n      tag_89\n        /* \"#utility.yul\":780:783   */\n      dup5\n        /* \"#utility.yul\":772:778   */\n      dup3\n        /* \"#utility.yul\":765:769   */\n      0x20\n        /* \"#utility.yul\":757:763   */\n      dup7\n        /* \"#utility.yul\":753:770   */\n      add\n        /* \"#utility.yul\":705:784   */\n      tag_73\n      jump\t// in\n    tag_89:\n        /* \"#utility.yul\":696:784   */\n      swap2\n      pop\n        /* \"#utility.yul\":579:790   */\n      pop\n      swap3\n      swap2\n      pop\n      pop\n      jump\t// out\n        /* \"#utility.yul\":796:935   */\n    tag_90:\n        /* \"#utility.yul\":842:847   */\n      0x00\n        /* \"#utility.yul\":880:886   */\n      dup2\n        /* \"#utility.yul\":867:887   */\n      calldataload\n        /* \"#utility.yul\":858:887   */\n      swap1\n      pop\n        /* \"#utility.yul\":896:929   */\n      tag_92\n        /* \"#utility.yul\":923:928   */\n      dup2\n        /* \"#utility.yul\":896:929   */\n      tag_93\n      jump\t// in\n    tag_92:\n        /* \"#utility.yul\":848:935   */\n      swap3\n      swap2\n      pop\n      pop\n      jump\t// out\n        /* \"#utility.yul\":941:1203   */\n    tag_24:\n        /* \"#utility.yul\":1000:1006   */\n      0x00\n        /* \"#utility.yul\":1049:1051   */\n      0x20\n        /* \"#utility.yul\":1037:1046   */\n      dup3\n        /* \"#utility.yul\":1028:1035   */\n      dup5\n        /* \"#utility.yul\":1024:1047   */\n      sub\n        /* \"#utility.yul\":1020:1052   */\n      slt\n        /* \"#utility.yul\":1017:1019   */\n      iszero\n      tag_95\n      jumpi\n        /* \"#utility.yul\":1065:1066   */\n      0x00\n        /* \"#utility.yul\":1062:1063   */\n      dup1\n        /* \"#utility.yul\":1055:1067   */\n      revert\n        /* \"#utility.yul\":1017:1019   */\n    tag_95:\n        /* \"#utility.yul\":1108:1109   */\n      0x00\n        /* \"#utility.yul\":1133:1186   */\n      tag_96\n        /* \"#utility.yul\":1178:1185   */\n      dup5\n        /* \"#utility.yul\":1169:1175   */\n      dup3\n        /* \"#utility.yul\":1158:1167   */\n      dup6\n        /* \"#utility.yul\":1154:1176   */\n      add\n        /* \"#utility.yul\":1133:1186   */\n      tag_82\n      jump\t// in\n    tag_96:\n        /* \"#utility.yul\":1123:1186   */\n      swap2\n      pop\n        /* \"#utility.yul\":1079:1196   */\n      pop\n        /* \"#utility.yul\":1007:1203   */\n      swap3\n      swap2\n      pop\n      pop\n      jump\t// out\n        /* \"#utility.yul\":1209:1584   */\n    tag_34:\n        /* \"#utility.yul\":1278:1284   */\n      0x00\n        /* \"#utility.yul\":1327:1329   */\n      0x20\n        /* \"#utility.yul\":1315:1324   */\n      dup3\n        /* \"#utility.yul\":1306:1313   */\n      dup5\n        /* \"#utility.yul\":1302:1325   */\n      sub\n        /* \"#utility.yul\":1298:1330   */\n      slt\n        /* \"#utility.yul\":1295:1297   */\n      iszero\n      tag_98\n      jumpi\n        /* \"#utility.yul\":1343:1344   */\n      0x00\n        /* \"#utility.yul\":1340:1341   */\n      dup1\n        /* \"#utility.yul\":1333:1345   */\n      revert\n        /* \"#utility.yul\":1295:1297   */\n    tag_98:\n        /* \"#utility.yul\":1414:1415   */\n      0x00\n        /* \"#utility.yul\":1403:1412   */\n      dup3\n        /* \"#utility.yul\":1399:1416   */\n      add\n        /* \"#utility.yul\":1386:1417   */\n      calldataload\n        /* \"#utility.yul\":1444:1462   */\n      0xffffffffffffffff\n        /* \"#utility.yul\":1436:1442   */\n      dup2\n        /* \"#utility.yul\":1433:1463   */\n      gt\n        /* \"#utility.yul\":1430:1432   */\n      iszero\n      tag_99\n      jumpi\n        /* \"#utility.yul\":1476:1477   */\n      0x00\n        /* \"#utility.yul\":1473:1474   */\n      dup1\n        /* \"#utility.yul\":1466:1478   */\n      revert\n        /* \"#utility.yul\":1430:1432   */\n    tag_99:\n        /* \"#utility.yul\":1504:1567   */\n      tag_100\n        /* \"#utility.yul\":1559:1566   */\n      dup5\n        /* \"#utility.yul\":1550:1556   */\n      dup3\n        /* \"#utility.yul\":1539:1548   */\n      dup6\n        /* \"#utility.yul\":1535:1557   */\n      add\n        /* \"#utility.yul\":1504:1567   */\n      tag_86\n      jump\t// in\n    tag_100:\n        /* \"#utility.yul\":1494:1567   */\n      swap2\n      pop\n        /* \"#utility.yul\":1357:1577   */\n      pop\n        /* \"#utility.yul\":1285:1584   */\n      swap3\n      swap2\n      pop\n      pop\n      jump\t// out\n        /* \"#utility.yul\":1590:1852   */\n    tag_13:\n        /* \"#utility.yul\":1649:1655   */\n      0x00\n        /* \"#utility.yul\":1698:1700   */\n      0x20\n        /* \"#utility.yul\":1686:1695   */\n      dup3\n        /* \"#utility.yul\":1677:1684   */\n      dup5\n        /* \"#utility.yul\":1673:1696   */\n      sub\n        /* \"#utility.yul\":1669:1701   */\n      slt\n        /* \"#utility.yul\":1666:1668   */\n      iszero\n      tag_102\n      jumpi\n        /* \"#utility.yul\":1714:1715   */\n      0x00\n        /* \"#utility.yul\":1711:1712   */\n      dup1\n        /* \"#utility.yul\":1704:1716   */\n      revert\n        /* \"#utility.yul\":1666:1668   */\n    tag_102:\n        /* \"#utility.yul\":1757:1758   */\n      0x00\n        /* \"#utility.yul\":1782:1835   */\n      tag_103\n        /* \"#utility.yul\":1827:1834   */\n      dup5\n        /* \"#utility.yul\":1818:1824   */\n      dup3\n        /* \"#utility.yul\":1807:1816   */\n      dup6\n        /* \"#utility.yul\":1803:1825   */\n      add\n        /* \"#utility.yul\":1782:1835   */\n      tag_90\n      jump\t// in\n    tag_103:\n        /* \"#utility.yul\":1772:1835   */\n      swap2\n      pop\n        /* \"#utility.yul\":1728:1845   */\n      pop\n        /* \"#utility.yul\":1656:1852   */\n      swap3\n      swap2\n      pop\n      pop\n      jump\t// out\n        /* \"#utility.yul\":1858:2265   */\n    tag_17:\n        /* \"#utility.yul\":1926:1932   */\n      0x00\n        /* \"#utility.yul\":1934:1940   */\n      dup1\n        /* \"#utility.yul\":1983:1985   */\n      0x40\n        /* \"#utility.yul\":1971:1980   */\n      dup4\n        /* \"#utility.yul\":1962:1969   */\n      dup6\n        /* \"#utility.yul\":1958:1981   */\n      sub\n        /* \"#utility.yul\":1954:1986   */\n      slt\n        /* \"#utility.yul\":1951:1953   */\n      iszero\n      tag_105\n      jumpi\n        /* \"#utility.yul\":1999:2000   */\n      0x00\n        /* \"#utility.yul\":1996:1997   */\n      dup1\n        /* \"#utility.yul\":1989:2001   */\n      revert\n        /* \"#utility.yul\":1951:1953   */\n    tag_105:\n        /* \"#utility.yul\":2042:2043   */\n      0x00\n        /* \"#utility.yul\":2067:2120   */\n      tag_106\n        /* \"#utility.yul\":2112:2119   */\n      dup6\n        /* \"#utility.yul\":2103:2109   */\n      dup3\n        /* \"#utility.yul\":2092:2101   */\n      dup7\n        /* \"#utility.yul\":2088:2110   */\n      add\n        /* \"#utility.yul\":2067:2120   */\n      tag_90\n      jump\t// in\n    tag_106:\n        /* \"#utility.yul\":2057:2120   */\n      swap3\n      pop\n        /* \"#utility.yul\":2013:2130   */\n      pop\n        /* \"#utility.yul\":2169:2171   */\n      0x20\n        /* \"#utility.yul\":2195:2248   */\n      tag_107\n        /* \"#utility.yul\":2240:2247   */\n      dup6\n        /* \"#utility.yul\":2231:2237   */\n      dup3\n        /* \"#utility.yul\":2220:2229   */\n      dup7\n        /* \"#utility.yul\":2216:2238   */\n      add\n        /* \"#utility.yul\":2195:2248   */\n      tag_82\n      jump\t// in\n    tag_107:\n        /* \"#utility.yul\":2185:2248   */\n      swap2\n      pop\n        /* \"#utility.yul\":2140:2258   */\n      pop\n        /* \"#utility.yul\":1941:2265   */\n      swap3\n      pop\n      swap3\n      swap1\n      pop\n      jump\t// out\n        /* \"#utility.yul\":2271:2389   */\n    tag_108:\n        /* \"#utility.yul\":2358:2382   */\n      tag_110\n        /* \"#utility.yul\":2376:2381   */\n      dup2\n        /* \"#utility.yul\":2358:2382   */\n      tag_111\n      jump\t// in\n    tag_110:\n        /* \"#utility.yul\":2353:2356   */\n      dup3\n        /* \"#utility.yul\":2346:2383   */\n      mstore\n        /* \"#utility.yul\":2336:2389   */\n      pop\n      pop\n      jump\t// out\n        /* \"#utility.yul\":2395:2504   */\n    tag_112:\n        /* \"#utility.yul\":2476:2497   */\n      tag_114\n        /* \"#utility.yul\":2491:2496   */\n      dup2\n        /* \"#utility.yul\":2476:2497   */\n      tag_115\n      jump\t// in\n    tag_114:\n        /* \"#utility.yul\":2471:2474   */\n      dup3\n        /* \"#utility.yul\":2464:2498   */\n      mstore\n        /* \"#utility.yul\":2454:2504   */\n      pop\n      pop\n      jump\t// out\n        /* \"#utility.yul\":2510:2874   */\n    tag_116:\n        /* \"#utility.yul\":2598:2601   */\n      0x00\n        /* \"#utility.yul\":2626:2665   */\n      tag_118\n        /* \"#utility.yul\":2659:2664   */\n      dup3\n        /* \"#utility.yul\":2626:2665   */\n      tag_119\n      jump\t// in\n    tag_118:\n        /* \"#utility.yul\":2681:2752   */\n      tag_120\n        /* \"#utility.yul\":2745:2751   */\n      dup2\n        /* \"#utility.yul\":2740:2743   */\n      dup6\n        /* \"#utility.yul\":2681:2752   */\n      tag_121\n      jump\t// in\n    tag_120:\n        /* \"#utility.yul\":2674:2752   */\n      swap4\n      pop\n        /* \"#utility.yul\":2761:2813   */\n      tag_122\n        /* \"#utility.yul\":2806:2812   */\n      dup2\n        /* \"#utility.yul\":2801:2804   */\n      dup6\n        /* \"#utility.yul\":2794:2798   */\n      0x20\n        /* \"#utility.yul\":2787:2792   */\n      dup7\n        /* \"#utility.yul\":2783:2799   */\n      add\n        /* \"#utility.yul\":2761:2813   */\n      tag_123\n      jump\t// in\n    tag_122:\n        /* \"#utility.yul\":2838:2867   */\n      tag_124\n        /* \"#utility.yul\":2860:2866   */\n      dup2\n        /* \"#utility.yul\":2838:2867   */\n      tag_125\n      jump\t// in\n    tag_124:\n        /* \"#utility.yul\":2833:2836   */\n      dup5\n        /* \"#utility.yul\":2829:2868   */\n      add\n        /* \"#utility.yul\":2822:2868   */\n      swap2\n      pop\n        /* \"#utility.yul\":2602:2874   */\n      pop\n      swap3\n      swap2\n      pop\n      pop\n      jump\t// out\n        /* \"#utility.yul\":2880:2998   */\n    tag_126:\n        /* \"#utility.yul\":2967:2991   */\n      tag_128\n        /* \"#utility.yul\":2985:2990   */\n      dup2\n        /* \"#utility.yul\":2967:2991   */\n      tag_129\n      jump\t// in\n    tag_128:\n        /* \"#utility.yul\":2962:2965   */\n      dup3\n        /* \"#utility.yul\":2955:2992   */\n      mstore\n        /* \"#utility.yul\":2945:2998   */\n      pop\n      pop\n      jump\t// out\n        /* \"#utility.yul\":3004:3214   */\n    tag_27:\n        /* \"#utility.yul\":3091:3095   */\n      0x00\n        /* \"#utility.yul\":3129:3131   */\n      0x20\n        /* \"#utility.yul\":3118:3127   */\n      dup3\n        /* \"#utility.yul\":3114:3132   */\n      add\n        /* \"#utility.yul\":3106:3132   */\n      swap1\n      pop\n        /* \"#utility.yul\":3142:3207   */\n      tag_131\n        /* \"#utility.yul\":3204:3205   */\n      0x00\n        /* \"#utility.yul\":3193:3202   */\n      dup4\n        /* \"#utility.yul\":3189:3206   */\n      add\n        /* \"#utility.yul\":3180:3186   */\n      dup5\n        /* \"#utility.yul\":3142:3207   */\n      tag_112\n      jump\t// in\n    tag_131:\n        /* \"#utility.yul\":3096:3214   */\n      swap3\n      swap2\n      pop\n      pop\n      jump\t// out\n        /* \"#utility.yul\":3220:3753   */\n    tag_40:\n        /* \"#utility.yul\":3389:3393   */\n      0x00\n        /* \"#utility.yul\":3427:3429   */\n      0x60\n        /* \"#utility.yul\":3416:3425   */\n      dup3\n        /* \"#utility.yul\":3412:3430   */\n      add\n        /* \"#utility.yul\":3404:3430   */\n      swap1\n      pop\n        /* \"#utility.yul\":3476:3485   */\n      dup2\n        /* \"#utility.yul\":3470:3474   */\n      dup2\n        /* \"#utility.yul\":3466:3486   */\n      sub\n        /* \"#utility.yul\":3462:3463   */\n      0x00\n        /* \"#utility.yul\":3451:3460   */\n      dup4\n        /* \"#utility.yul\":3447:3464   */\n      add\n        /* \"#utility.yul\":3440:3487   */\n      mstore\n        /* \"#utility.yul\":3504:3582   */\n      tag_133\n        /* \"#utility.yul\":3577:3581   */\n      dup2\n        /* \"#utility.yul\":3568:3574   */\n      dup7\n        /* \"#utility.yul\":3504:3582   */\n      tag_116\n      jump\t// in\n    tag_133:\n        /* \"#utility.yul\":3496:3582   */\n      swap1\n      pop\n        /* \"#utility.yul\":3592:3664   */\n      tag_134\n        /* \"#utility.yul\":3660:3662   */\n      0x20\n        /* \"#utility.yul\":3649:3658   */\n      dup4\n        /* \"#utility.yul\":3645:3663   */\n      add\n        /* \"#utility.yul\":3636:3642   */\n      dup6\n        /* \"#utility.yul\":3592:3664   */\n      tag_126\n      jump\t// in\n    tag_134:\n        /* \"#utility.yul\":3674:3746   */\n      tag_135\n        /* \"#utility.yul\":3742:3744   */\n      0x40\n        /* \"#utility.yul\":3731:3740   */\n      dup4\n        /* \"#utility.yul\":3727:3745   */\n      add\n        /* \"#utility.yul\":3718:3724   */\n      dup5\n        /* \"#utility.yul\":3674:3746   */\n      tag_108\n      jump\t// in\n    tag_135:\n        /* \"#utility.yul\":3394:3753   */\n      swap5\n      swap4\n      pop\n      pop\n      pop\n      pop\n      jump\t// out\n        /* \"#utility.yul\":3759:3981   */\n    tag_31:\n        /* \"#utility.yul\":3852:3856   */\n      0x00\n        /* \"#utility.yul\":3890:3892   */\n      0x20\n        /* \"#utility.yul\":3879:3888   */\n      dup3\n        /* \"#utility.yul\":3875:3893   */\n      add\n        /* \"#utility.yul\":3867:3893   */\n      swap1\n      pop\n        /* \"#utility.yul\":3903:3974   */\n      tag_137\n        /* \"#utility.yul\":3971:3972   */\n      0x00\n        /* \"#utility.yul\":3960:3969   */\n      dup4\n        /* \"#utility.yul\":3956:3973   */\n      add\n        /* \"#utility.yul\":3947:3953   */\n      dup5\n        /* \"#utility.yul\":3903:3974   */\n      tag_126\n      jump\t// in\n    tag_137:\n        /* \"#utility.yul\":3857:3981   */\n      swap3\n      swap2\n      pop\n      pop\n      jump\t// out\n        /* \"#utility.yul\":3987:4116   */\n    tag_78:\n        /* \"#utility.yul\":4021:4027   */\n      0x00\n        /* \"#utility.yul\":4048:4068   */\n      tag_139\n      tag_140\n      jump\t// in\n    tag_139:\n        /* \"#utility.yul\":4038:4068   */\n      swap1\n      pop\n        /* \"#utility.yul\":4077:4110   */\n      tag_141\n        /* \"#utility.yul\":4105:4109   */\n      dup3\n        /* \"#utility.yul\":4097:4103   */\n      dup3\n        /* \"#utility.yul\":4077:4110   */\n      tag_142\n      jump\t// in\n    tag_141:\n        /* \"#utility.yul\":4028:4116   */\n      swap2\n      swap1\n      pop\n      jump\t// out\n        /* \"#utility.yul\":4122:4197   */\n    tag_140:\n        /* \"#utility.yul\":4155:4161   */\n      0x00\n        /* \"#utility.yul\":4188:4190   */\n      0x40\n        /* \"#utility.yul\":4182:4191   */\n      mload\n        /* \"#utility.yul\":4172:4191   */\n      swap1\n      pop\n        /* \"#utility.yul\":4162:4197   */\n      swap1\n      jump\t// out\n        /* \"#utility.yul\":4203:4511   */\n    tag_77:\n        /* \"#utility.yul\":4265:4269   */\n      0x00\n        /* \"#utility.yul\":4355:4373   */\n      0xffffffffffffffff\n        /* \"#utility.yul\":4347:4353   */\n      dup3\n        /* \"#utility.yul\":4344:4374   */\n      gt\n        /* \"#utility.yul\":4341:4343   */\n      iszero\n      tag_145\n      jumpi\n        /* \"#utility.yul\":4377:4395   */\n      tag_146\n      tag_147\n      jump\t// in\n    tag_146:\n        /* \"#utility.yul\":4341:4343   */\n    tag_145:\n        /* \"#utility.yul\":4415:4444   */\n      tag_148\n        /* \"#utility.yul\":4437:4443   */\n      dup3\n        /* \"#utility.yul\":4415:4444   */\n      tag_125\n      jump\t// in\n    tag_148:\n        /* \"#utility.yul\":4407:4444   */\n      swap1\n      pop\n        /* \"#utility.yul\":4499:4503   */\n      0x20\n        /* \"#utility.yul\":4493:4497   */\n      dup2\n        /* \"#utility.yul\":4489:4504   */\n      add\n        /* \"#utility.yul\":4481:4504   */\n      swap1\n      pop\n        /* \"#utility.yul\":4270:4511   */\n      swap2\n      swap1\n      pop\n      jump\t// out\n        /* \"#utility.yul\":4517:4616   */\n    tag_119:\n        /* \"#utility.yul\":4569:4575   */\n      0x00\n        /* \"#utility.yul\":4603:4608   */\n      dup2\n        /* \"#utility.yul\":4597:4609   */\n      mload\n        /* \"#utility.yul\":4587:4609   */\n      swap1\n      pop\n        /* \"#utility.yul\":4576:4616   */\n      swap2\n      swap1\n      pop\n      jump\t// out\n        /* \"#utility.yul\":4622:4791   */\n    tag_121:\n        /* \"#utility.yul\":4706:4717   */\n      0x00\n        /* \"#utility.yul\":4740:4746   */\n      dup3\n        /* \"#utility.yul\":4735:4738   */\n      dup3\n        /* \"#utility.yul\":4728:4747   */\n      mstore\n        /* \"#utility.yul\":4780:4784   */\n      0x20\n        /* \"#utility.yul\":4775:4778   */\n      dup3\n        /* \"#utility.yul\":4771:4785   */\n      add\n        /* \"#utility.yul\":4756:4785   */\n      swap1\n      pop\n        /* \"#utility.yul\":4718:4791   */\n      swap3\n      swap2\n      pop\n      pop\n      jump\t// out\n        /* \"#utility.yul\":4797:4893   */\n    tag_111:\n        /* \"#utility.yul\":4834:4841   */\n      0x00\n        /* \"#utility.yul\":4863:4887   */\n      tag_152\n        /* \"#utility.yul\":4881:4886   */\n      dup3\n        /* \"#utility.yul\":4863:4887   */\n      tag_153\n      jump\t// in\n    tag_152:\n        /* \"#utility.yul\":4852:4887   */\n      swap1\n      pop\n        /* \"#utility.yul\":4842:4893   */\n      swap2\n      swap1\n      pop\n      jump\t// out\n        /* \"#utility.yul\":4899:4989   */\n    tag_115:\n        /* \"#utility.yul\":4933:4940   */\n      0x00\n        /* \"#utility.yul\":4976:4981   */\n      dup2\n        /* \"#utility.yul\":4969:4982   */\n      iszero\n        /* \"#utility.yul\":4962:4983   */\n      iszero\n        /* \"#utility.yul\":4951:4983   */\n      swap1\n      pop\n        /* \"#utility.yul\":4941:4989   */\n      swap2\n      swap1\n      pop\n      jump\t// out\n        /* \"#utility.yul\":4995:5121   */\n    tag_153:\n        /* \"#utility.yul\":5032:5039   */\n      0x00\n        /* \"#utility.yul\":5072:5114   */\n      0xffffffffffffffffffffffffffffffffffffffff\n        /* \"#utility.yul\":5065:5070   */\n      dup3\n        /* \"#utility.yul\":5061:5115   */\n      and\n        /* \"#utility.yul\":5050:5115   */\n      swap1\n      pop\n        /* \"#utility.yul\":5040:5121   */\n      swap2\n      swap1\n      pop\n      jump\t// out\n        /* \"#utility.yul\":5127:5204   */\n    tag_129:\n        /* \"#utility.yul\":5164:5171   */\n      0x00\n        /* \"#utility.yul\":5193:5198   */\n      dup2\n        /* \"#utility.yul\":5182:5198   */\n      swap1\n      pop\n        /* \"#utility.yul\":5172:5204   */\n      swap2\n      swap1\n      pop\n      jump\t// out\n        /* \"#utility.yul\":5210:5364   */\n    tag_81:\n        /* \"#utility.yul\":5294:5300   */\n      dup3\n        /* \"#utility.yul\":5289:5292   */\n      dup2\n        /* \"#utility.yul\":5284:5287   */\n      dup4\n        /* \"#utility.yul\":5271:5301   */\n      calldatacopy\n        /* \"#utility.yul\":5356:5357   */\n      0x00\n        /* \"#utility.yul\":5347:5353   */\n      dup4\n        /* \"#utility.yul\":5342:5345   */\n      dup4\n        /* \"#utility.yul\":5338:5354   */\n      add\n        /* \"#utility.yul\":5331:5358   */\n      mstore\n        /* \"#utility.yul\":5261:5364   */\n      pop\n      pop\n      pop\n      jump\t// out\n        /* \"#utility.yul\":5370:5677   */\n    tag_123:\n        /* \"#utility.yul\":5438:5439   */\n      0x00\n        /* \"#utility.yul\":5448:5561   */\n    tag_159:\n        /* \"#utility.yul\":5462:5468   */\n      dup4\n        /* \"#utility.yul\":5459:5460   */\n      dup2\n        /* \"#utility.yul\":5456:5469   */\n      lt\n        /* \"#utility.yul\":5448:5561   */\n      iszero\n      tag_161\n      jumpi\n        /* \"#utility.yul\":5547:5548   */\n      dup1\n        /* \"#utility.yul\":5542:5545   */\n      dup3\n        /* \"#utility.yul\":5538:5549   */\n      add\n        /* \"#utility.yul\":5532:5550   */\n      mload\n        /* \"#utility.yul\":5528:5529   */\n      dup2\n        /* \"#utility.yul\":5523:5526   */\n      dup5\n        /* \"#utility.yul\":5519:5530   */\n      add\n        /* \"#utility.yul\":5512:5551   */\n      mstore\n        /* \"#utility.yul\":5484:5486   */\n      0x20\n        /* \"#utility.yul\":5481:5482   */\n      dup2\n        /* \"#utility.yul\":5477:5487   */\n      add\n        /* \"#utility.yul\":5472:5487   */\n      swap1\n      pop\n        /* \"#utility.yul\":5448:5561   */\n      jump(tag_159)\n    tag_161:\n        /* \"#utility.yul\":5579:5585   */\n      dup4\n        /* \"#utility.yul\":5576:5577   */\n      dup2\n        /* \"#utility.yul\":5573:5586   */\n      gt\n        /* \"#utility.yul\":5570:5572   */\n      iszero\n      tag_162\n      jumpi\n        /* \"#utility.yul\":5659:5660   */\n      0x00\n        /* \"#utility.yul\":5650:5656   */\n      dup5\n        /* \"#utility.yul\":5645:5648   */\n      dup5\n        /* \"#utility.yul\":5641:5657   */\n      add\n        /* \"#utility.yul\":5634:5661   */\n      mstore\n        /* \"#utility.yul\":5570:5572   */\n    tag_162:\n        /* \"#utility.yul\":5419:5677   */\n      pop\n      pop\n      pop\n      pop\n      jump\t// out\n        /* \"#utility.yul\":5683:6003   */\n    tag_57:\n        /* \"#utility.yul\":5727:5733   */\n      0x00\n        /* \"#utility.yul\":5764:5765   */\n      0x02\n        /* \"#utility.yul\":5758:5762   */\n      dup3\n        /* \"#utility.yul\":5754:5766   */\n      div\n        /* \"#utility.yul\":5744:5766   */\n      swap1\n      pop\n        /* \"#utility.yul\":5811:5812   */\n      0x01\n        /* \"#utility.yul\":5805:5809   */\n      dup3\n        /* \"#utility.yul\":5801:5813   */\n      and\n        /* \"#utility.yul\":5832:5850   */\n      dup1\n        /* \"#utility.yul\":5822:5824   */\n      tag_164\n      jumpi\n        /* \"#utility.yul\":5888:5892   */\n      0x7f\n        /* \"#utility.yul\":5880:5886   */\n      dup3\n        /* \"#utility.yul\":5876:5893   */\n      and\n        /* \"#utility.yul\":5866:5893   */\n      swap2\n      pop\n        /* \"#utility.yul\":5822:5824   */\n    tag_164:\n        /* \"#utility.yul\":5950:5952   */\n      0x20\n        /* \"#utility.yul\":5942:5948   */\n      dup3\n        /* \"#utility.yul\":5939:5953   */\n      lt\n        /* \"#utility.yul\":5919:5937   */\n      dup2\n        /* \"#utility.yul\":5916:5954   */\n      eq\n        /* \"#utility.yul\":5913:5915   */\n      iszero\n      tag_165\n      jumpi\n        /* \"#utility.yul\":5969:5987   */\n      tag_166\n      tag_167\n      jump\t// in\n    tag_166:\n        /* \"#utility.yul\":5913:5915   */\n    tag_165:\n        /* \"#utility.yul\":5734:6003   */\n      pop\n      swap2\n      swap1\n      pop\n      jump\t// out\n        /* \"#utility.yul\":6009:6290   */\n    tag_142:\n        /* \"#utility.yul\":6092:6119   */\n      tag_169\n        /* \"#utility.yul\":6114:6118   */\n      dup3\n        /* \"#utility.yul\":6092:6119   */\n      tag_125\n      jump\t// in\n    tag_169:\n        /* \"#utility.yul\":6084:6090   */\n      dup2\n        /* \"#utility.yul\":6080:6120   */\n      add\n        /* \"#utility.yul\":6222:6228   */\n      dup2\n        /* \"#utility.yul\":6210:6220   */\n      dup2\n        /* \"#utility.yul\":6207:6229   */\n      lt\n        /* \"#utility.yul\":6186:6204   */\n      0xffffffffffffffff\n        /* \"#utility.yul\":6174:6184   */\n      dup3\n        /* \"#utility.yul\":6171:6205   */\n      gt\n        /* \"#utility.yul\":6168:6230   */\n      or\n        /* \"#utility.yul\":6165:6167   */\n      iszero\n      tag_170\n      jumpi\n        /* \"#utility.yul\":6233:6251   */\n      tag_171\n      tag_147\n      jump\t// in\n    tag_171:\n        /* \"#utility.yul\":6165:6167   */\n    tag_170:\n        /* \"#utility.yul\":6273:6283   */\n      dup1\n        /* \"#utility.yul\":6269:6271   */\n      0x40\n        /* \"#utility.yul\":6262:6284   */\n      mstore\n        /* \"#utility.yul\":6052:6290   */\n      pop\n      pop\n      pop\n      jump\t// out\n        /* \"#utility.yul\":6296:6529   */\n    tag_50:\n        /* \"#utility.yul\":6335:6338   */\n      0x00\n        /* \"#utility.yul\":6358:6382   */\n      tag_173\n        /* \"#utility.yul\":6376:6381   */\n      dup3\n        /* \"#utility.yul\":6358:6382   */\n      tag_129\n      jump\t// in\n    tag_173:\n        /* \"#utility.yul\":6349:6382   */\n      swap2\n      pop\n        /* \"#utility.yul\":6404:6470   */\n      0xffffffffffffffffffffffffffffffffffffffffffffffffffffffffffffffff\n        /* \"#utility.yul\":6397:6402   */\n      dup3\n        /* \"#utility.yul\":6394:6471   */\n      eq\n        /* \"#utility.yul\":6391:6393   */\n      iszero\n      tag_174\n      jumpi\n        /* \"#utility.yul\":6474:6492   */\n      tag_175\n      tag_176\n      jump\t// in\n    tag_175:\n        /* \"#utility.yul\":6391:6393   */\n    tag_174:\n        /* \"#utility.yul\":6521:6522   */\n      0x01\n        /* \"#utility.yul\":6514:6519   */\n      dup3\n        /* \"#utility.yul\":6510:6523   */\n      add\n        /* \"#utility.yul\":6503:6523   */\n      swap1\n      pop\n        /* \"#utility.yul\":6339:6529   */\n      swap2\n      swap1\n      pop\n      jump\t// out\n        /* \"#utility.yul\":6535:6715   */\n    tag_176:\n        /* \"#utility.yul\":6583:6660   */\n      0x4e487b7100000000000000000000000000000000000000000000000000000000\n        /* \"#utility.yul\":6580:6581   */\n      0x00\n        /* \"#utility.yul\":6573:6661   */\n      mstore\n        /* \"#utility.yul\":6680:6684   */\n      0x11\n        /* \"#utility.yul\":6677:6678   */\n      0x04\n        /* \"#utility.yul\":6670:6685   */\n      mstore\n        /* \"#utility.yul\":6704:6708   */\n      0x24\n        /* \"#utility.yul\":6701:6702   */\n      0x00\n        /* \"#utility.yul\":6694:6709   */\n      revert\n        /* \"#utility.yul\":6721:6901   */\n    tag_167:\n        /* \"#utility.yul\":6769:6846   */\n      0x4e487b7100000000000000000000000000000000000000000000000000000000\n        /* \"#utility.yul\":6766:6767   */\n      0x00\n        /* \"#utility.yul\":6759:6847   */\n      mstore\n        /* \"#utility.yul\":6866:6870   */\n      0x22\n        /* \"#utility.yul\":6863:6864   */\n      0x04\n        /* \"#utility.yul\":6856:6871   */\n      mstore\n        /* \"#utility.yul\":6890:6894   */\n      0x24\n        /* \"#utility.yul\":6887:6888   */\n      0x00\n        /* \"#utility.yul\":6880:6895   */\n      revert\n        /* \"#utility.yul\":6907:7087   */\n    tag_147:\n        /* \"#utility.yul\":6955:7032   */\n      0x4e487b7100000000000000000000000000000000000000000000000000000000\n        /* \"#utility.yul\":6952:6953   */\n      0x00\n        /* \"#utility.yul\":6945:7033   */\n      mstore\n        /* \"#utility.yul\":7052:7056   */\n      0x41\n        /* \"#utility.yul\":7049:7050   */\n      0x04\n        /* \"#utility.yul\":7042:7057   */\n      mstore\n        /* \"#utility.yul\":7076:7080   */\n      0x24\n        /* \"#utility.yul\":7073:7074   */\n      0x00\n        /* \"#utility.yul\":7066:7081   */\n      revert\n        /* \"#utility.yul\":7093:7195   */\n    tag_125:\n        /* \"#utility.yul\":7134:7140   */\n      0x00\n        /* \"#utility.yul\":7185:7187   */\n      0x1f\n        /* \"#utility.yul\":7181:7188   */\n      not\n        /* \"#utility.yul\":7176:7178   */\n      0x1f\n        /* \"#utility.yul\":7169:7174   */\n      dup4\n        /* \"#utility.yul\":7165:7179   */\n      add\n        /* \"#utility.yul\":7161:7189   */\n      and\n        /* \"#utility.yul\":7151:7189   */\n      swap1\n      pop\n        /* \"#utility.yul\":7141:7195   */\n      swap2\n      swap1\n      pop\n      jump\t// out\n        /* \"#utility.yul\":7201:7323   */\n    tag_85:\n        /* \"#utility.yul\":7274:7298   */\n      tag_182\n        /* \"#utility.yul\":7292:7297   */\n      dup2\n        /* \"#utility.yul\":7274:7298   */\n      tag_111\n      jump\t// in\n    tag_182:\n        /* \"#utility.yul\":7267:7272   */\n      dup2\n        /* \"#utility.yul\":7264:7299   */\n      eq\n        /* \"#utility.yul\":7254:7256   */\n      tag_183\n      jumpi\n        /* \"#utility.yul\":7313:7314   */\n      0x00\n        /* \"#utility.yul\":7310:7311   */\n      dup1\n        /* \"#utility.yul\":7303:7315   */\n      revert\n        /* \"#utility.yul\":7254:7256   */\n    tag_183:\n        /* \"#utility.yul\":7244:7323   */\n      pop\n      jump\t// out\n        /* \"#utility.yul\":7329:7451   */\n    tag_93:\n        /* \"#utility.yul\":7402:7426   */\n      tag_185\n        /* \"#utility.yul\":7420:7425   */\n      dup2\n        /* \"#utility.yul\":7402:7426   */\n      tag_129\n      jump\t// in\n    tag_185:\n        /* \"#utility.yul\":7395:7400   */\n      dup2\n        /* \"#utility.yul\":7392:7427   */\n      eq\n        /* \"#utility.yul\":7382:7384   */\n      tag_186\n      jumpi\n        /* \"#utility.yul\":7441:7442   */\n      0x00\n        /* \"#utility.yul\":7438:7439   */\n      dup1\n        /* \"#utility.yul\":7431:7443   */\n      revert\n        /* \"#utility.yul\":7382:7384   */\n    tag_186:\n        /* \"#utility.yul\":7372:7451   */\n      pop\n      jump\t// out\n\n    auxdata: 0xa2646970667358221220dd45323ab6ad467aaa42c4da088496237a61f9e466201b76a88fdf55e784bcf364736f6c63430008040033\n}\n",
    "bytecode": {
      "linkReferences": {},
      "object": "608060405234801561001057600080fd5b50610c0a806100206000396000f3fe608060405234801561001057600080fd5b506004361061007d5760003560e01c8063d6f8307f1161005b578063d6f8307f146100d6578063de58f1b614610106578063eecd6bc214610124578063f0ba8440146101405761007d565b806319a32989146100825780631da000ec1461009e5780633b40075d146100ba575b600080fd5b61009c60048036038101906100979190610821565b610172565b005b6100b860048036038101906100b3919061084a565b61024b565b005b6100d460048036038101906100cf9190610821565b610329565b005b6100f060048036038101906100eb91906107b7565b610484565b6040516100fd91906108ec565b60405180910390f35b61010e6104a4565b60405161011b9190610945565b60405180910390f35b61013e600480360381019061013991906107e0565b6104aa565b005b61015a60048036038101906101559190610821565b6105b0565b60405161016993929190610907565b60405180910390f35b3373ffffffffffffffffffffffffffffffffffffffff166003600083815260200190815260200160002060040160009054906101000a900473ffffffffffffffffffffffffffffffffffffffff1673ffffffffffffffffffffffffffffffffffffffff16148061023f57506003600082815260200190815260200160002060020160003373ffffffffffffffffffffffffffffffffffffffff1673ffffffffffffffffffffffffffffffffffffffff16815260200190815260200160002060009054906101000a900460ff165b61024857600080fd5b50565b3373ffffffffffffffffffffffffffffffffffffffff166003600084815260200190815260200160002060040160009054906101000a900473ffffffffffffffffffffffffffffffffffffffff1673ffffffffffffffffffffffffffffffffffffffff16146102b957600080fd5b60016003600084815260200190815260200160002060020160008373ffffffffffffffffffffffffffffffffffffffff1673ffffffffffffffffffffffffffffffffffffffff16815260200190815260200160002060006101000a81548160ff0219169083151502179055505050565b6000803373ffffffffffffffffffffffffffffffffffffffff1673ffffffffffffffffffffffffffffffffffffffff16815260200190815260200160002060009054906101000a900460ff1661037e57600080fd5b6003600082815260200190815260200160002060010160003373ffffffffffffffffffffffffffffffffffffffff1673ffffffffffffffffffffffffffffffffffffffff16815260200190815260200160002060009054906101000a900460ff16156103e957600080fd5b60016003600083815260200190815260200160002060010160003373ffffffffffffffffffffffffffffffffffffffff1673ffffffffffffffffffffffffffffffffffffffff16815260200190815260200160002060006101000a81548160ff02191690831515021790555060036000828152602001908152602001600020600301600081548092919061047c90610abf565b919050555050565b60006020528060005260406000206000915054906101000a900460ff1681565b60015481565b60016000803373ffffffffffffffffffffffffffffffffffffffff1673ffffffffffffffffffffffffffffffffffffffff16815260200190815260200160002060006101000a81548160ff0219169083151502179055506001600081548092919061051490610abf565b91905055506000600360006002600081548092919061053290610abf565b91905055815260200190815260200160002090508181600001908051906020019061055e929190610682565b5060008160030181905550338160040160006101000a81548173ffffffffffffffffffffffffffffffffffffffff021916908373ffffffffffffffffffffffffffffffffffffffff1602179055505050565b60036020528060005260406000206000915090508060000180546105d390610a5c565b80601f01602080910402602001604051908101604052809291908181526020018280546105ff90610a5c565b801561064c5780601f106106215761010080835404028352916020019161064c565b820191906000526020600020905b81548152906001019060200180831161062f57829003601f168201915b5050505050908060030154908060040160009054906101000a900473ffffffffffffffffffffffffffffffffffffffff16905083565b82805461068e90610a5c565b90600052602060002090601f0160209004810192826106b057600085556106f7565b82601f106106c957805160ff19168380011785556106f7565b828001600101855582156106f7579182015b828111156106f65782518255916020019190600101906106db565b5b5090506107049190610708565b5090565b5b80821115610721576000816000905550600101610709565b5090565b600061073861073384610985565b610960565b90508281526020810184848401111561075057600080fd5b61075b848285610a1a565b509392505050565b60008135905061077281610ba6565b92915050565b600082601f83011261078957600080fd5b8135610799848260208601610725565b91505092915050565b6000813590506107b181610bbd565b92915050565b6000602082840312156107c957600080fd5b60006107d784828501610763565b91505092915050565b6000602082840312156107f257600080fd5b600082013567ffffffffffffffff81111561080c57600080fd5b61081884828501610778565b91505092915050565b60006020828403121561083357600080fd5b6000610841848285016107a2565b91505092915050565b6000806040838503121561085d57600080fd5b600061086b858286016107a2565b925050602061087c85828601610763565b9150509250929050565b61088f816109d2565b82525050565b61089e816109e4565b82525050565b60006108af826109b6565b6108b981856109c1565b93506108c9818560208601610a29565b6108d281610b95565b840191505092915050565b6108e681610a10565b82525050565b60006020820190506109016000830184610895565b92915050565b6000606082019050818103600083015261092181866108a4565b905061093060208301856108dd565b61093d6040830184610886565b949350505050565b600060208201905061095a60008301846108dd565b92915050565b600061096a61097b565b90506109768282610a8e565b919050565b6000604051905090565b600067ffffffffffffffff8211156109a05761099f610b66565b5b6109a982610b95565b9050602081019050919050565b600081519050919050565b600082825260208201905092915050565b60006109dd826109f0565b9050919050565b60008115159050919050565b600073ffffffffffffffffffffffffffffffffffffffff82169050919050565b6000819050919050565b82818337600083830152505050565b60005b83811015610a47578082015181840152602081019050610a2c565b83811115610a56576000848401525b50505050565b60006002820490506001821680610a7457607f821691505b60208210811415610a8857610a87610b37565b5b50919050565b610a9782610b95565b810181811067ffffffffffffffff82111715610ab657610ab5610b66565b5b80604052505050565b6000610aca82610a10565b91507fffffffffffffffffffffffffffffffffffffffffffffffffffffffffffffffff821415610afd57610afc610b08565b5b600182019050919050565b7f4e487b7100000000000000000000000000000000000000000000000000000000600052601160045260246000fd5b7f4e487b7100000000000000000000000000000000000000000000000000000000600052602260045260246000fd5b7f4e487b7100000000000000000000000000000000000000000000000000000000600052604160045260246000fd5b6000601f19601f8301169050919050565b610baf816109d2565b8114610bba57600080fd5b50565b610bc681610a10565b8114610bd157600080fd5b5056fea2646970667358221220dd45323ab6ad467aaa42c4da088496237a61f9e466201b76a88fdf55e784bcf364736f6c63430008040033",
      "opcodes": "PUSH1 0x80 PUSH1 0x40 MSTORE CALLVALUE DUP1 ISZERO PUSH2 0x10 JUMPI PUSH1 0x0 DUP1 REVERT JUMPDEST POP PUSH2 0xC0A DUP1 PUSH2 0x20 PUSH1 0x0 CODECOPY PUSH1 0x0 RETURN INVALID PUSH1 0x80 PUSH1 0x40 MSTORE CALLVALUE DUP1 ISZERO PUSH2 0x10 JUMPI PUSH1 0x0 DUP1 REVERT JUMPDEST POP PUSH1 0x4 CALLDATASIZE LT PUSH2 0x7D JUMPI PUSH1 0x0 CALLDATALOAD PUSH1 0xE0 SHR DUP1 PUSH4 0xD6F8307F GT PUSH2 0x5B JUMPI DUP1 PUSH4 0xD6F8307F EQ PUSH2 0xD6 JUMPI DUP1 PUSH4 0xDE58F1B6 EQ PUSH2 0x106 JUMPI DUP1 PUSH4 0xEECD6BC2 EQ PUSH2 0x124 JUMPI DUP1 PUSH4 0xF0BA8440 EQ PUSH2 0x140 JUMPI PUSH2 0x7D JUMP JUMPDEST DUP1 PUSH4 0x19A32989 EQ PUSH2 0x82 JUMPI DUP1 PUSH4 0x1DA000EC EQ PUSH2 0x9E JUMPI DUP1 PUSH4 0x3B40075D EQ PUSH2 0xBA JUMPI JUMPDEST PUSH1 0x0 DUP1 REVERT JUMPDEST PUSH2 0x9C PUSH1 0x4 DUP1 CALLDATASIZE SUB DUP2 ADD SWAP1 PUSH2 0x97 SWAP2 SWAP1 PUSH2 0x821 JUMP JUMPDEST PUSH2 0x172 JUMP JUMPDEST STOP JUMPDEST PUSH2 0xB8 PUSH1 0x4 DUP1 CALLDATASIZE SUB DUP2 ADD SWAP1 PUSH2 0xB3 SWAP2 SWAP1 PUSH2 0x84A JUMP JUMPDEST PUSH2 0x24B JUMP JUMPDEST STOP JUMPDEST PUSH2 0xD4 PUSH1 0x4 DUP1 CALLDATASIZE SUB DUP2 ADD SWAP1 PUSH2 0xCF SWAP2 SWAP1 PUSH2 0x821 JUMP JUMPDEST PUSH2 0x329 JUMP JUMPDEST STOP JUMPDEST PUSH2 0xF0 PUSH1 0x4 DUP1 CALLDATASIZE SUB DUP2 ADD SWAP1 PUSH2 0xEB SWAP2 SWAP1 PUSH2 0x7B7 JUMP JUMPDEST PUSH2 0x484 JUMP JUMPDEST PUSH1 0x40 MLOAD PUSH2 0xFD SWAP2 SWAP1 PUSH2 0x8EC JUMP JUMPDEST PUSH1 0x40 MLOAD DUP1 SWAP2 SUB SWAP1 RETURN JUMPDEST PUSH2 0x10E PUSH2 0x4A4 JUMP JUMPDEST PUSH1 0x40 MLOAD PUSH2 0x11B SWAP2 SWAP1 PUSH2 0x945 JUMP JUMPDEST PUSH1 0x40 MLOAD DUP1 SWAP2 SUB SWAP1 RETURN JUMPDEST PUSH2 0x13E PUSH1 0x4 DUP1 CALLDATASIZE SUB DUP2 ADD SWAP1 PUSH2 0x139 SWAP2 SWAP1 PUSH2 0x7E0 JUMP JUMPDEST PUSH2 0x4AA JUMP JUMPDEST STOP JUMPDEST PUSH2 0x15A PUSH1 0x4 DUP1 CALLDATASIZE SUB DUP2 ADD SWAP1 PUSH2 0x155 SWAP2 SWAP1 PUSH2 0x821 JUMP JUMPDEST PUSH2 0x5B0 JUMP JUMPDEST PUSH1 0x40 MLOAD PUSH2 0x169 SWAP4 SWAP3 SWAP2 SWAP1 PUSH2 0x907 JUMP JUMPDEST PUSH1 0x40 MLOAD DUP1 SWAP2 SUB SWAP1 RETURN JUMPDEST CALLER PUSH20 0xFFFFFFFFFFFFFFFFFFFFFFFFFFFFFFFFFFFFFFFF AND PUSH1 0x3 PUSH1 0x0 DUP4 DUP2 MSTORE PUSH1 0x20 ADD SWAP1 DUP2 MSTORE PUSH1 0x20 ADD PUSH1 0x0 KECCAK256 PUSH1 0x4 ADD PUSH1 0x0 SWAP1 SLOAD SWAP1 PUSH2 0x100 EXP SWAP1 DIV PUSH20 0xFFFFFFFFFFFFFFFFFFFFFFFFFFFFFFFFFFFFFFFF AND PUSH20 0xFFFFFFFFFFFFFFFFFFFFFFFFFFFFFFFFFFFFFFFF AND EQ DUP1 PUSH2 0x23F JUMPI POP PUSH1 0x3 PUSH1 0x0 DUP3 DUP2 MSTORE PUSH1 0x20 ADD SWAP1 DUP2 MSTORE PUSH1 0x20 ADD PUSH1 0x0 KECCAK256 PUSH1 0x2 ADD PUSH1 0x0 CALLER PUSH20 0xFFFFFFFFFFFFFFFFFFFFFFFFFFFFFFFFFFFFFFFF AND PUSH20 0xFFFFFFFFFFFFFFFFFFFFFFFFFFFFFFFFFFFFFFFF AND DUP2 MSTORE PUSH1 0x20 ADD SWAP1 DUP2 MSTORE PUSH1 0x20 ADD PUSH1 0x0 KECCAK256 PUSH1 0x0 SWAP1 SLOAD SWAP1 PUSH2 0x100 EXP SWAP1 DIV PUSH1 0xFF AND JUMPDEST PUSH2 0x248 JUMPI PUSH1 0x0 DUP1 REVERT JUMPDEST POP JUMP JUMPDEST CALLER PUSH20 0xFFFFFFFFFFFFFFFFFFFFFFFFFFFFFFFFFFFFFFFF AND PUSH1 0x3 PUSH1 0x0 DUP5 DUP2 MSTORE PUSH1 0x20 ADD SWAP1 DUP2 MSTORE PUSH1 0x20 ADD PUSH1 0x0 KECCAK256 PUSH1 0x4 ADD PUSH1 0x0 SWAP1 SLOAD SWAP1 PUSH2 0x100 EXP SWAP1 DIV PUSH20 0xFFFFFFFFFFFFFFFFFFFFFFFFFFFFFFFFFFFFFFFF AND PUSH20 0xFFFFFFFFFFFFFFFFFFFFFFFFFFFFFFFFFFFFFFFF AND EQ PUSH2 0x2B9 JUMPI PUSH1 0x0 DUP1 REVERT JUMPDEST PUSH1 0x1 PUSH1 0x3 PUSH1 0x0 DUP5 DUP2 MSTORE PUSH1 0x20 ADD SWAP1 DUP2 MSTORE PUSH1 0x20 ADD PUSH1 0x0 KECCAK256 PUSH1 0x2 ADD PUSH1 0x0 DUP4 PUSH20 0xFFFFFFFFFFFFFFFFFFFFFFFFFFFFFFFFFFFFFFFF AND PUSH20 0xFFFFFFFFFFFFFFFFFFFFFFFFFFFFFFFFFFFFFFFF AND DUP2 MSTORE PUSH1 0x20 ADD SWAP1 DUP2 MSTORE PUSH1 0x20 ADD PUSH1 0x0 KECCAK256 PUSH1 0x0 PUSH2 0x100 EXP DUP2 SLOAD DUP2 PUSH1 0xFF MUL NOT AND SWAP1 DUP4 ISZERO ISZERO MUL OR SWAP1 SSTORE POP POP POP JUMP JUMPDEST PUSH1 0x0 DUP1 CALLER PUSH20 0xFFFFFFFFFFFFFFFFFFFFFFFFFFFFFFFFFFFFFFFF AND PUSH20 0xFFFFFFFFFFFFFFFFFFFFFFFFFFFFFFFFFFFFFFFF AND DUP2 MSTORE PUSH1 0x20 ADD SWAP1 DUP2 MSTORE PUSH1 0x20 ADD PUSH1 0x0 KECCAK256 PUSH1 0x0 SWAP1 SLOAD SWAP1 PUSH2 0x100 EXP SWAP1 DIV PUSH1 0xFF AND PUSH2 0x37E JUMPI PUSH1 0x0 DUP1 REVERT JUMPDEST PUSH1 0x3 PUSH1 0x0 DUP3 DUP2 MSTORE PUSH1 0x20 ADD SWAP1 DUP2 MSTORE PUSH1 0x20 ADD PUSH1 0x0 KECCAK256 PUSH1 0x1 ADD PUSH1 0x0 CALLER PUSH20 0xFFFFFFFFFFFFFFFFFFFFFFFFFFFFFFFFFFFFFFFF AND PUSH20 0xFFFFFFFFFFFFFFFFFFFFFFFFFFFFFFFFFFFFFFFF AND DUP2 MSTORE PUSH1 0x20 ADD SWAP1 DUP2 MSTORE PUSH1 0x20 ADD PUSH1 0x0 KECCAK256 PUSH1 0x0 SWAP1 SLOAD SWAP1 PUSH2 0x100 EXP SWAP1 DIV PUSH1 0xFF AND ISZERO PUSH2 0x3E9 JUMPI PUSH1 0x0 DUP1 REVERT JUMPDEST PUSH1 0x1 PUSH1 0x3 PUSH1 0x0 DUP4 DUP2 MSTORE PUSH1 0x20 ADD SWAP1 DUP2 MSTORE PUSH1 0x20 ADD PUSH1 0x0 KECCAK256 PUSH1 0x1 ADD PUSH1 0x0 CALLER PUSH20 0xFFFFFFFFFFFFFFFFFFFFFFFFFFFFFFFFFFFFFFFF AND PUSH20 0xFFFFFFFFFFFFFFFFFFFFFFFFFFFFFFFFFFFFFFFF AND DUP2 MSTORE PUSH1 0x20 ADD SWAP1 DUP2 MSTORE PUSH1 0x20 ADD PUSH1 0x0 KECCAK256 PUSH1 0x0 PUSH2 0x100 EXP DUP2 SLOAD DUP2 PUSH1 0xFF MUL NOT AND SWAP1 DUP4 ISZERO ISZERO MUL OR SWAP1 SSTORE POP PUSH1 0x3 PUSH1 0x0 DUP3 DUP2 MSTORE PUSH1 0x20 ADD SWAP1 DUP2 MSTORE PUSH1 0x20 ADD PUSH1 0x0 KECCAK256 PUSH1 0x3 ADD PUSH1 0x0 DUP2 SLOAD DUP1 SWAP3 SWAP2 SWAP1 PUSH2 0x47C SWAP1 PUSH2 0xABF JUMP JUMPDEST SWAP2 SWAP1 POP SSTORE POP POP JUMP JUMPDEST PUSH1 0x0 PUSH1 0x20 MSTORE DUP1 PUSH1 0x0 MSTORE PUSH1 0x40 PUSH1 0x0 KECCAK256 PUSH1 0x0 SWAP2 POP SLOAD SWAP1 PUSH2 0x100 EXP SWAP1 DIV PUSH1 0xFF AND DUP2 JUMP JUMPDEST PUSH1 0x1 SLOAD DUP2 JUMP JUMPDEST PUSH1 0x1 PUSH1 0x0 DUP1 CALLER PUSH20 0xFFFFFFFFFFFFFFFFFFFFFFFFFFFFFFFFFFFFFFFF AND PUSH20 0xFFFFFFFFFFFFFFFFFFFFFFFFFFFFFFFFFFFFFFFF AND DUP2 MSTORE PUSH1 0x20 ADD SWAP1 DUP2 MSTORE PUSH1 0x20 ADD PUSH1 0x0 KECCAK256 PUSH1 0x0 PUSH2 0x100 EXP DUP2 SLOAD DUP2 PUSH1 0xFF MUL NOT AND SWAP1 DUP4 ISZERO ISZERO MUL OR SWAP1 SSTORE POP PUSH1 0x1 PUSH1 0x0 DUP2 SLOAD DUP1 SWAP3 SWAP2 SWAP1 PUSH2 0x514 SWAP1 PUSH2 0xABF JUMP JUMPDEST SWAP2 SWAP1 POP SSTORE POP PUSH1 0x0 PUSH1 0x3 PUSH1 0x0 PUSH1 0x2 PUSH1 0x0 DUP2 SLOAD DUP1 SWAP3 SWAP2 SWAP1 PUSH2 0x532 SWAP1 PUSH2 0xABF JUMP JUMPDEST SWAP2 SWAP1 POP SSTORE DUP2 MSTORE PUSH1 0x20 ADD SWAP1 DUP2 MSTORE PUSH1 0x20 ADD PUSH1 0x0 KECCAK256 SWAP1 POP DUP2 DUP2 PUSH1 0x0 ADD SWAP1 DUP1 MLOAD SWAP1 PUSH1 0x20 ADD SWAP1 PUSH2 0x55E SWAP3 SWAP2 SWAP1 PUSH2 0x682 JUMP JUMPDEST POP PUSH1 0x0 DUP2 PUSH1 0x3 ADD DUP2 SWAP1 SSTORE POP CALLER DUP2 PUSH1 0x4 ADD PUSH1 0x0 PUSH2 0x100 EXP DUP2 SLOAD DUP2 PUSH20 0xFFFFFFFFFFFFFFFFFFFFFFFFFFFFFFFFFFFFFFFF MUL NOT AND SWAP1 DUP4 PUSH20 0xFFFFFFFFFFFFFFFFFFFFFFFFFFFFFFFFFFFFFFFF AND MUL OR SWAP1 SSTORE POP POP POP JUMP JUMPDEST PUSH1 0x3 PUSH1 0x20 MSTORE DUP1 PUSH1 0x0 MSTORE PUSH1 0x40 PUSH1 0x0 KECCAK256 PUSH1 0x0 SWAP2 POP SWAP1 POP DUP1 PUSH1 0x0 ADD DUP1 SLOAD PUSH2 0x5D3 SWAP1 PUSH2 0xA5C JUMP JUMPDEST DUP1 PUSH1 0x1F ADD PUSH1 0x20 DUP1 SWAP2 DIV MUL PUSH1 0x20 ADD PUSH1 0x40 MLOAD SWAP1 DUP2 ADD PUSH1 0x40 MSTORE DUP1 SWAP3 SWAP2 SWAP1 DUP2 DUP2 MSTORE PUSH1 0x20 ADD DUP3 DUP1 SLOAD PUSH2 0x5FF SWAP1 PUSH2 0xA5C JUMP JUMPDEST DUP1 ISZERO PUSH2 0x64C JUMPI DUP1 PUSH1 0x1F LT PUSH2 0x621 JUMPI PUSH2 0x100 DUP1 DUP4 SLOAD DIV MUL DUP4 MSTORE SWAP2 PUSH1 0x20 ADD SWAP2 PUSH2 0x64C JUMP JUMPDEST DUP3 ADD SWAP2 SWAP1 PUSH1 0x0 MSTORE PUSH1 0x20 PUSH1 0x0 KECCAK256 SWAP1 JUMPDEST DUP2 SLOAD DUP2 MSTORE SWAP1 PUSH1 0x1 ADD SWAP1 PUSH1 0x20 ADD DUP1 DUP4 GT PUSH2 0x62F JUMPI DUP3 SWAP1 SUB PUSH1 0x1F AND DUP3 ADD SWAP2 JUMPDEST POP POP POP POP POP SWAP1 DUP1 PUSH1 0x3 ADD SLOAD SWAP1 DUP1 PUSH1 0x4 ADD PUSH1 0x0 SWAP1 SLOAD SWAP1 PUSH2 0x100 EXP SWAP1 DIV PUSH20 0xFFFFFFFFFFFFFFFFFFFFFFFFFFFFFFFFFFFFFFFF AND SWAP1 POP DUP4 JUMP JUMPDEST DUP3 DUP1 SLOAD PUSH2 0x68E SWAP1 PUSH2 0xA5C JUMP JUMPDEST SWAP1 PUSH1 0x0 MSTORE PUSH1 0x20 PUSH1 0x0 KECCAK256 SWAP1 PUSH1 0x1F ADD PUSH1 0x20 SWAP1 DIV DUP2 ADD SWAP3 DUP3 PUSH2 0x6B0 JUMPI PUSH1 0x0 DUP6 SSTORE PUSH2 0x6F7 JUMP JUMPDEST DUP3 PUSH1 0x1F LT PUSH2 0x6C9 JUMPI DUP1 MLOAD PUSH1 0xFF NOT AND DUP4 DUP1 ADD OR DUP6 SSTORE PUSH2 0x6F7 JUMP JUMPDEST DUP3 DUP1 ADD PUSH1 0x1 ADD DUP6 SSTORE DUP3 ISZERO PUSH2 0x6F7 JUMPI SWAP2 DUP3 ADD JUMPDEST DUP3 DUP2 GT ISZERO PUSH2 0x6F6 JUMPI DUP3 MLOAD DUP3 SSTORE SWAP2 PUSH1 0x20 ADD SWAP2 SWAP1 PUSH1 0x1 ADD SWAP1 PUSH2 0x6DB JUMP JUMPDEST JUMPDEST POP SWAP1 POP PUSH2 0x704 SWAP2 SWAP1 PUSH2 0x708 JUMP JUMPDEST POP SWAP1 JUMP JUMPDEST JUMPDEST DUP1 DUP3 GT ISZERO PUSH2 0x721 JUMPI PUSH1 0x0 DUP2 PUSH1 0x0 SWAP1 SSTORE POP PUSH1 0x1 ADD PUSH2 0x709 JUMP JUMPDEST POP SWAP1 JUMP JUMPDEST PUSH1 0x0 PUSH2 0x738 PUSH2 0x733 DUP5 PUSH2 0x985 JUMP JUMPDEST PUSH2 0x960 JUMP JUMPDEST SWAP1 POP DUP3 DUP2 MSTORE PUSH1 0x20 DUP2 ADD DUP5 DUP5 DUP5 ADD GT ISZERO PUSH2 0x750 JUMPI PUSH1 0x0 DUP1 REVERT JUMPDEST PUSH2 0x75B DUP5 DUP3 DUP6 PUSH2 0xA1A JUMP JUMPDEST POP SWAP4 SWAP3 POP POP POP JUMP JUMPDEST PUSH1 0x0 DUP2 CALLDATALOAD SWAP1 POP PUSH2 0x772 DUP2 PUSH2 0xBA6 JUMP JUMPDEST SWAP3 SWAP2 POP POP JUMP JUMPDEST PUSH1 0x0 DUP3 PUSH1 0x1F DUP4 ADD SLT PUSH2 0x789 JUMPI PUSH1 0x0 DUP1 REVERT JUMPDEST DUP2 CALLDATALOAD PUSH2 0x799 DUP5 DUP3 PUSH1 0x20 DUP7 ADD PUSH2 0x725 JUMP JUMPDEST SWAP2 POP POP SWAP3 SWAP2 POP POP JUMP JUMPDEST PUSH1 0x0 DUP2 CALLDATALOAD SWAP1 POP PUSH2 0x7B1 DUP2 PUSH2 0xBBD JUMP JUMPDEST SWAP3 SWAP2 POP POP JUMP JUMPDEST PUSH1 0x0 PUSH1 0x20 DUP3 DUP5 SUB SLT ISZERO PUSH2 0x7C9 JUMPI PUSH1 0x0 DUP1 REVERT JUMPDEST PUSH1 0x0 PUSH2 0x7D7 DUP5 DUP3 DUP6 ADD PUSH2 0x763 JUMP JUMPDEST SWAP2 POP POP SWAP3 SWAP2 POP POP JUMP JUMPDEST PUSH1 0x0 PUSH1 0x20 DUP3 DUP5 SUB SLT ISZERO PUSH2 0x7F2 JUMPI PUSH1 0x0 DUP1 REVERT JUMPDEST PUSH1 0x0 DUP3 ADD CALLDATALOAD PUSH8 0xFFFFFFFFFFFFFFFF DUP2 GT ISZERO PUSH2 0x80C JUMPI PUSH1 0x0 DUP1 REVERT JUMPDEST PUSH2 0x818 DUP5 DUP3 DUP6 ADD PUSH2 0x778 JUMP JUMPDEST SWAP2 POP POP SWAP3 SWAP2 POP POP JUMP JUMPDEST PUSH1 0x0 PUSH1 0x20 DUP3 DUP5 SUB SLT ISZERO PUSH2 0x833 JUMPI PUSH1 0x0 DUP1 REVERT JUMPDEST PUSH1 0x0 PUSH2 0x841 DUP5 DUP3 DUP6 ADD PUSH2 0x7A2 JUMP JUMPDEST SWAP2 POP POP SWAP3 SWAP2 POP POP JUMP JUMPDEST PUSH1 0x0 DUP1 PUSH1 0x40 DUP4 DUP6 SUB SLT ISZERO PUSH2 0x85D JUMPI PUSH1 0x0 DUP1 REVERT JUMPDEST PUSH1 0x0 PUSH2 0x86B DUP6 DUP3 DUP7 ADD PUSH2 0x7A2 JUMP JUMPDEST SWAP3 POP POP PUSH1 0x20 PUSH2 0x87C DUP6 DUP3 DUP7 ADD PUSH2 0x763 JUMP JUMPDEST SWAP2 POP POP SWAP3 POP SWAP3 SWAP1 POP JUMP JUMPDEST PUSH2 0x88F DUP2 PUSH2 0x9D2 JUMP JUMPDEST DUP3 MSTORE POP POP JUMP JUMPDEST PUSH2 0x89E DUP2 PUSH2 0x9E4 JUMP JUMPDEST DUP3 MSTORE POP POP JUMP JUMPDEST PUSH1 0x0 PUSH2 0x8AF DUP3 PUSH2 0x9B6 JUMP JUMPDEST PUSH2 0x8B9 DUP2 DUP6 PUSH2 0x9C1 JUMP JUMPDEST SWAP4 POP PUSH2 0x8C9 DUP2 DUP6 PUSH1 0x20 DUP7 ADD PUSH2 0xA29 JUMP JUMPDEST PUSH2 0x8D2 DUP2 PUSH2 0xB95 JUMP JUMPDEST DUP5 ADD SWAP2 POP POP SWAP3 SWAP2 POP POP JUMP JUMPDEST PUSH2 0x8E6 DUP2 PUSH2 0xA10 JUMP JUMPDEST DUP3 MSTORE POP POP JUMP JUMPDEST PUSH1 0x0 PUSH1 0x20 DUP3 ADD SWAP1 POP PUSH2 0x901 PUSH1 0x0 DUP4 ADD DUP5 PUSH2 0x895 JUMP JUMPDEST SWAP3 SWAP2 POP POP JUMP JUMPDEST PUSH1 0x0 PUSH1 0x60 DUP3 ADD SWAP1 POP DUP2 DUP2 SUB PUSH1 0x0 DUP4 ADD MSTORE PUSH2 0x921 DUP2 DUP7 PUSH2 0x8A4 JUMP JUMPDEST SWAP1 POP PUSH2 0x930 PUSH1 0x20 DUP4 ADD DUP6 PUSH2 0x8DD JUMP JUMPDEST PUSH2 0x93D PUSH1 0x40 DUP4 ADD DUP5 PUSH2 0x886 JUMP JUMPDEST SWAP5 SWAP4 POP POP POP POP JUMP JUMPDEST PUSH1 0x0 PUSH1 0x20 DUP3 ADD SWAP1 POP PUSH2 0x95A PUSH1 0x0 DUP4 ADD DUP5 PUSH2 0x8DD JUMP JUMPDEST SWAP3 SWAP2 POP POP JUMP JUMPDEST PUSH1 0x0 PUSH2 0x96A PUSH2 0x97B JUMP JUMPDEST SWAP1 POP PUSH2 0x976 DUP3 DUP3 PUSH2 0xA8E JUMP JUMPDEST SWAP2 SWAP1 POP JUMP JUMPDEST PUSH1 0x0 PUSH1 0x40 MLOAD SWAP1 POP SWAP1 JUMP JUMPDEST PUSH1 0x0 PUSH8 0xFFFFFFFFFFFFFFFF DUP3 GT ISZERO PUSH2 0x9A0 JUMPI PUSH2 0x99F PUSH2 0xB66 JUMP JUMPDEST JUMPDEST PUSH2 0x9A9 DUP3 PUSH2 0xB95 JUMP JUMPDEST SWAP1 POP PUSH1 0x20 DUP2 ADD SWAP1 POP SWAP2 SWAP1 POP JUMP JUMPDEST PUSH1 0x0 DUP2 MLOAD SWAP1 POP SWAP2 SWAP1 POP JUMP JUMPDEST PUSH1 0x0 DUP3 DUP3 MSTORE PUSH1 0x20 DUP3 ADD SWAP1 POP SWAP3 SWAP2 POP POP JUMP JUMPDEST PUSH1 0x0 PUSH2 0x9DD DUP3 PUSH2 0x9F0 JUMP JUMPDEST SWAP1 POP SWAP2 SWAP1 POP JUMP JUMPDEST PUSH1 0x0 DUP2 ISZERO ISZERO SWAP1 POP SWAP2 SWAP1 POP JUMP JUMPDEST PUSH1 0x0 PUSH20 0xFFFFFFFFFFFFFFFFFFFFFFFFFFFFFFFFFFFFFFFF DUP3 AND SWAP1 POP SWAP2 SWAP1 POP JUMP JUMPDEST PUSH1 0x0 DUP2 SWAP1 POP SWAP2 SWAP1 POP JUMP JUMPDEST DUP3 DUP2 DUP4 CALLDATACOPY PUSH1 0x0 DUP4 DUP4 ADD MSTORE POP POP POP JUMP JUMPDEST PUSH1 0x0 JUMPDEST DUP4 DUP2 LT ISZERO PUSH2 0xA47 JUMPI DUP1 DUP3 ADD MLOAD DUP2 DUP5 ADD MSTORE PUSH1 0x20 DUP2 ADD SWAP1 POP PUSH2 0xA2C JUMP JUMPDEST DUP4 DUP2 GT ISZERO PUSH2 0xA56 JUMPI PUSH1 0x0 DUP5 DUP5 ADD MSTORE JUMPDEST POP POP POP POP JUMP JUMPDEST PUSH1 0x0 PUSH1 0x2 DUP3 DIV SWAP1 POP PUSH1 0x1 DUP3 AND DUP1 PUSH2 0xA74 JUMPI PUSH1 0x7F DUP3 AND SWAP2 POP JUMPDEST PUSH1 0x20 DUP3 LT DUP2 EQ ISZERO PUSH2 0xA88 JUMPI PUSH2 0xA87 PUSH2 0xB37 JUMP JUMPDEST JUMPDEST POP SWAP2 SWAP1 POP JUMP JUMPDEST PUSH2 0xA97 DUP3 PUSH2 0xB95 JUMP JUMPDEST DUP2 ADD DUP2 DUP2 LT PUSH8 0xFFFFFFFFFFFFFFFF DUP3 GT OR ISZERO PUSH2 0xAB6 JUMPI PUSH2 0xAB5 PUSH2 0xB66 JUMP JUMPDEST JUMPDEST DUP1 PUSH1 0x40 MSTORE POP POP POP JUMP JUMPDEST PUSH1 0x0 PUSH2 0xACA DUP3 PUSH2 0xA10 JUMP JUMPDEST SWAP2 POP PUSH32 0xFFFFFFFFFFFFFFFFFFFFFFFFFFFFFFFFFFFFFFFFFFFFFFFFFFFFFFFFFFFFFFFF DUP3 EQ ISZERO PUSH2 0xAFD JUMPI PUSH2 0xAFC PUSH2 0xB08 JUMP JUMPDEST JUMPDEST PUSH1 0x1 DUP3 ADD SWAP1 POP SWAP2 SWAP1 POP JUMP JUMPDEST PUSH32 0x4E487B7100000000000000000000000000000000000000000000000000000000 PUSH1 0x0 MSTORE PUSH1 0x11 PUSH1 0x4 MSTORE PUSH1 0x24 PUSH1 0x0 REVERT JUMPDEST PUSH32 0x4E487B7100000000000000000000000000000000000000000000000000000000 PUSH1 0x0 MSTORE PUSH1 0x22 PUSH1 0x4 MSTORE PUSH1 0x24 PUSH1 0x0 REVERT JUMPDEST PUSH32 0x4E487B7100000000000000000000000000000000000000000000000000000000 PUSH1 0x0 MSTORE PUSH1 0x41 PUSH1 0x4 MSTORE PUSH1 0x24 PUSH1 0x0 REVERT JUMPDEST PUSH1 0x0 PUSH1 0x1F NOT PUSH1 0x1F DUP4 ADD AND SWAP1 POP SWAP2 SWAP1 POP JUMP JUMPDEST PUSH2 0xBAF DUP2 PUSH2 0x9D2 JUMP JUMPDEST DUP2 EQ PUSH2 0xBBA JUMPI PUSH1 0x0 DUP1 REVERT JUMPDEST POP JUMP JUMPDEST PUSH2 0xBC6 DUP2 PUSH2 0xA10 JUMP JUMPDEST DUP2 EQ PUSH2 0xBD1 JUMPI PUSH1 0x0 DUP1 REVERT JUMPDEST POP JUMP INVALID LOG2 PUSH5 0x6970667358 0x22 SLT KECCAK256 0xDD GASLIMIT ORIGIN GASPRICE 0xB6 0xAD CHAINID PUSH27 0xAA42C4DA088496237A61F9E466201B76A88FDF55E784BCF364736F PUSH13 0x63430008040033000000000000 "
    },
    "gasEstimates": {
      "creation": {
        "codeDepositCost": "616400",
        "executionCost": "651",
        "totalCost": "617051"
      },
      "external": {
        "createData(string)": "infinite",
        "data(uint256)": "infinite",
        "dispayData(uint256)": "2392",
        "finalizeRequest(uint256,address)": "22646",
        "makeRequest(uint256)": "infinite",
        "requesters(address)": "1545",
        "requestersCount()": "1151"
      }
    },
    "methodIdentifiers": {
      "createData(string)": "eecd6bc2",
      "data(uint256)": "f0ba8440",
      "dispayData(uint256)": "19a32989",
      "finalizeRequest(uint256,address)": "1da000ec",
      "makeRequest(uint256)": "3b40075d",
      "requesters(address)": "d6f8307f",
      "requestersCount()": "de58f1b6"
    }
  },
  "storageLayout": {
    "storage": [
      {
        "astId": 39,
        "contract": "HealthHub.sol:HealthHub",
        "label": "requesters",
        "offset": 0,
        "slot": "0",
        "type": "t_mapping(t_address,t_bool)"
      },
      {
        "astId": 41,
        "contract": "HealthHub.sol:HealthHub",
        "label": "requestersCount",
        "offset": 0,
        "slot": "1",
        "type": "t_uint256"
      },
      {
        "astId": 64,
        "contract": "HealthHub.sol:HealthHub",
        "label": "numRequests",
        "offset": 0,
        "slot": "2",
        "type": "t_uint256"
      },
      {
        "astId": 69,
        "contract": "HealthHub.sol:HealthHub",
        "label": "data",
        "offset": 0,
        "slot": "3",
        "type": "t_mapping(t_uint256,t_struct(Data)56_storage)"
      }
    ],
    "types": {
      "t_address": {
        "encoding": "inplace",
        "label": "address",
        "numberOfBytes": "20"
      },
      "t_bool": {
        "encoding": "inplace",
        "label": "bool",
        "numberOfBytes": "1"
      },
      "t_mapping(t_address,t_bool)": {
        "encoding": "mapping",
        "key": "t_address",
        "label": "mapping(address => bool)",
        "numberOfBytes": "32",
        "value": "t_bool"
      },
      "t_mapping(t_uint256,t_struct(Data)56_storage)": {
        "encoding": "mapping",
        "key": "t_uint256",
        "label": "mapping(uint256 => struct HealthHub.Data)",
        "numberOfBytes": "32",
        "value": "t_struct(Data)56_storage"
      },
      "t_string_storage": {
        "encoding": "bytes",
        "label": "string",
        "numberOfBytes": "32"
      },
      "t_struct(Data)56_storage": {
        "encoding": "inplace",
        "label": "struct HealthHub.Data",
        "members": [
          {
            "astId": 43,
            "contract": "HealthHub.sol:HealthHub",
            "label": "description",
            "offset": 0,
            "slot": "0",
            "type": "t_string_storage"
          },
          {
            "astId": 47,
            "contract": "HealthHub.sol:HealthHub",
            "label": "requestsMade",
            "offset": 0,
            "slot": "1",
            "type": "t_mapping(t_address,t_bool)"
          },
          {
            "astId": 51,
            "contract": "HealthHub.sol:HealthHub",
            "label": "finalApproved",
            "offset": 0,
            "slot": "2",
            "type": "t_mapping(t_address,t_bool)"
          },
          {
            "astId": 53,
            "contract": "HealthHub.sol:HealthHub",
            "label": "requestsMadeCount",
            "offset": 0,
            "slot": "3",
            "type": "t_uint256"
          },
          {
            "astId": 55,
            "contract": "HealthHub.sol:HealthHub",
            "label": "manager",
            "offset": 0,
            "slot": "4",
            "type": "t_address"
          }
        ],
        "numberOfBytes": "160"
      },
      "t_uint256": {
        "encoding": "inplace",
        "label": "uint256",
        "numberOfBytes": "32"
      }
    }
  },
  "userdoc": {
    "kind": "user",
    "methods": {},
    "version": 1
  }
}